{
  "_format": "hh-sol-artifact-1",
  "contractName": "OpenVectorCOFHEExecutor",
  "sourceName": "contracts/openvector.sol",
  "abi": [
    {
      "inputs": [],
      "stateMutability": "nonpayable",
      "type": "constructor"
    },
    {
      "inputs": [
        {
          "internalType": "address",
          "name": "owner",
          "type": "address"
        }
      ],
      "name": "OwnableInvalidOwner",
      "type": "error"
    },
    {
      "inputs": [
        {
          "internalType": "address",
          "name": "account",
          "type": "address"
        }
      ],
      "name": "OwnableUnauthorizedAccount",
      "type": "error"
    },
    {
      "anonymous": false,
      "inputs": [
        {
          "indexed": false,
          "internalType": "CRTT.RequestID",
          "name": "request_id",
          "type": "uint128"
        },
        {
          "indexed": false,
          "internalType": "enum CRTT.RequestType",
          "name": "request_type",
          "type": "uint8"
        },
        {
          "indexed": false,
          "internalType": "address",
          "name": "sender",
          "type": "address"
        }
      ],
      "name": "NewRequest",
      "type": "event"
    },
    {
      "anonymous": false,
      "inputs": [
        {
          "indexed": true,
          "internalType": "address",
          "name": "previousOwner",
          "type": "address"
        },
        {
          "indexed": true,
          "internalType": "address",
          "name": "newOwner",
          "type": "address"
        }
      ],
      "name": "OwnershipTransferred",
      "type": "event"
    },
    {
      "inputs": [],
      "name": "confidential_coin_request_cost",
      "outputs": [
        {
          "internalType": "uint256",
          "name": "",
          "type": "uint256"
        }
      ],
      "stateMutability": "view",
      "type": "function"
    },
    {
      "inputs": [],
      "name": "data_store_cost",
      "outputs": [
        {
          "internalType": "uint256",
          "name": "",
          "type": "uint256"
        }
      ],
      "stateMutability": "view",
      "type": "function"
    },
    {
      "inputs": [],
      "name": "decryption_cost",
      "outputs": [
        {
          "internalType": "uint256",
          "name": "",
          "type": "uint256"
        }
      ],
      "stateMutability": "view",
      "type": "function"
    },
    {
      "inputs": [
        {
          "components": [
            {
              "internalType": "bool",
              "name": "is_mint_request",
              "type": "bool"
            },
            {
              "internalType": "CRTT.EUint32",
              "name": "sender_balance",
              "type": "uint128"
            },
            {
              "internalType": "CRTT.EUint32",
              "name": "receiver_balance",
              "type": "uint128"
            },
            {
              "internalType": "uint256",
              "name": "plaintext_transfer_amount",
              "type": "uint256"
            },
            {
              "internalType": "bytes",
              "name": "transfer_amount",
              "type": "bytes"
            },
            {
              "internalType": "bool",
              "name": "consider_amount_negative",
              "type": "bool"
            },
            {
              "internalType": "bytes[]",
              "name": "sender_balance_storage_key_acl",
              "type": "bytes[]"
            },
            {
              "internalType": "bytes[]",
              "name": "receiver_balance_storage_key_acl",
              "type": "bytes[]"
            },
            {
              "internalType": "uint256",
              "name": "callback_gas",
              "type": "uint256"
            },
            {
              "internalType": "uint256",
              "name": "payment_callback_gas",
              "type": "uint256"
            },
            {
              "internalType": "function (struct CRTT.ConfidentialCoinResponse) payable external",
              "name": "callback",
              "type": "function"
            },
            {
              "internalType": "function (CRTT.RequestID) payable external",
              "name": "payment_callback",
              "type": "function"
            }
          ],
          "internalType": "struct CRTT.ConfidentialCoinRequest",
          "name": "request",
          "type": "tuple"
        }
      ],
      "name": "executeRequest",
      "outputs": [
        {
          "internalType": "CRTT.RequestID",
          "name": "",
          "type": "uint128"
        }
      ],
      "stateMutability": "payable",
      "type": "function"
    },
    {
      "inputs": [
        {
          "components": [
            {
              "components": [
                {
                  "internalType": "enum CRTT.DataType",
                  "name": "data_type",
                  "type": "uint8"
                },
                {
                  "internalType": "enum CRTT.OperandEncryptionScheme",
                  "name": "encryption_scheme",
                  "type": "uint8"
                },
                {
                  "internalType": "bytes",
                  "name": "data",
                  "type": "bytes"
                }
              ],
              "internalType": "struct CRTT.ValueOperand",
              "name": "operand",
              "type": "tuple"
            },
            {
              "internalType": "uint256",
              "name": "payment",
              "type": "uint256"
            },
            {
              "internalType": "uint256",
              "name": "acceptance_callback_gas",
              "type": "uint256"
            },
            {
              "internalType": "uint256",
              "name": "submission_callback_gas",
              "type": "uint256"
            },
            {
              "internalType": "uint256",
              "name": "payment_callback_gas",
              "type": "uint256"
            },
            {
              "internalType": "function (struct CRTT.DataStoreResponse) payable external",
              "name": "acceptance_callback",
              "type": "function"
            },
            {
              "internalType": "function (struct CRTT.DataStoreResponse) payable external",
              "name": "submission_callback",
              "type": "function"
            },
            {
              "internalType": "function (CRTT.RequestID) payable external",
              "name": "payment_callback",
              "type": "function"
            }
          ],
          "internalType": "struct CRTT.DataStoreRequest",
          "name": "request",
          "type": "tuple"
        }
      ],
      "name": "executeRequest",
      "outputs": [
        {
          "internalType": "CRTT.RequestID",
          "name": "",
          "type": "uint128"
        }
      ],
      "stateMutability": "payable",
      "type": "function"
    },
    {
      "inputs": [
        {
          "components": [
            {
              "internalType": "enum CRTT.DataRequestedType",
              "name": "requested_type",
              "type": "uint8"
            },
            {
              "internalType": "CRTT.DataKey",
              "name": "key",
              "type": "uint128"
            },
            {
              "internalType": "uint256",
              "name": "payment",
              "type": "uint256"
            },
            {
              "internalType": "uint256",
              "name": "callback_gas",
              "type": "uint256"
            },
            {
              "internalType": "uint256",
              "name": "payment_callback_gas",
              "type": "uint256"
            },
            {
              "internalType": "function (struct CRTT.DataRetrievalResponse) payable external",
              "name": "callback",
              "type": "function"
            },
            {
              "internalType": "function (CRTT.RequestID) payable external",
              "name": "payment_callback",
              "type": "function"
            },
            {
              "internalType": "CRTT.DataKey",
              "name": "reencryption_key",
              "type": "uint128"
            }
          ],
          "internalType": "struct CRTT.DataRetrievalRequest",
          "name": "request",
          "type": "tuple"
        }
      ],
      "name": "executeRequest",
      "outputs": [
        {
          "internalType": "CRTT.RequestID",
          "name": "",
          "type": "uint128"
        }
      ],
      "stateMutability": "payable",
      "type": "function"
    },
    {
      "inputs": [
        {
          "components": [
            {
              "internalType": "enum CRTT.Operation",
              "name": "operation",
              "type": "uint8"
            },
            {
              "components": [
                {
                  "internalType": "enum CRTT.DataType",
                  "name": "data_type",
                  "type": "uint8"
                },
                {
                  "internalType": "enum CRTT.OperandLocation",
                  "name": "location",
                  "type": "uint8"
                },
                {
                  "internalType": "enum CRTT.OperandEncryptionScheme",
                  "name": "encryption_scheme",
                  "type": "uint8"
                },
                {
                  "internalType": "bytes",
                  "name": "data",
                  "type": "bytes"
                }
              ],
              "internalType": "struct CRTT.Operand",
              "name": "op1",
              "type": "tuple"
            },
            {
              "components": [
                {
                  "internalType": "enum CRTT.DataType",
                  "name": "data_type",
                  "type": "uint8"
                },
                {
                  "internalType": "enum CRTT.OperandLocation",
                  "name": "location",
                  "type": "uint8"
                },
                {
                  "internalType": "enum CRTT.OperandEncryptionScheme",
                  "name": "encryption_scheme",
                  "type": "uint8"
                },
                {
                  "internalType": "bytes",
                  "name": "data",
                  "type": "bytes"
                }
              ],
              "internalType": "struct CRTT.Operand",
              "name": "op2",
              "type": "tuple"
            },
            {
              "internalType": "uint256",
              "name": "payment",
              "type": "uint256"
            },
            {
              "internalType": "uint256",
              "name": "acceptance_callback_gas",
              "type": "uint256"
            },
            {
              "internalType": "uint256",
              "name": "submission_callback_gas",
              "type": "uint256"
            },
            {
              "internalType": "uint256",
              "name": "payment_callback_gas",
              "type": "uint256"
            },
            {
              "internalType": "function (struct CRTT.Response) payable external",
              "name": "acceptance_callback",
              "type": "function"
            },
            {
              "internalType": "function (struct CRTT.Response) payable external",
              "name": "submission_callback",
              "type": "function"
            },
            {
              "internalType": "function (CRTT.RequestID) payable external",
              "name": "payment_callback",
              "type": "function"
            }
          ],
          "internalType": "struct CRTT.Request",
          "name": "request",
          "type": "tuple"
        }
      ],
      "name": "executeRequest",
      "outputs": [
        {
          "internalType": "CRTT.RequestID",
          "name": "",
          "type": "uint128"
        }
      ],
      "stateMutability": "payable",
      "type": "function"
    },
    {
      "inputs": [],
      "name": "getBalance",
      "outputs": [
        {
          "internalType": "uint128",
          "name": "",
          "type": "uint128"
        }
      ],
      "stateMutability": "view",
      "type": "function"
    },
    {
      "inputs": [],
      "name": "last_confidential_coin_request_id",
      "outputs": [
        {
          "internalType": "CRTT.RequestID",
          "name": "",
          "type": "uint128"
        }
      ],
      "stateMutability": "view",
      "type": "function"
    },
    {
      "inputs": [],
      "name": "last_data_request_id",
      "outputs": [
        {
          "internalType": "CRTT.RequestID",
          "name": "",
          "type": "uint128"
        }
      ],
      "stateMutability": "view",
      "type": "function"
    },
    {
      "inputs": [],
      "name": "last_data_store_request_id",
      "outputs": [
        {
          "internalType": "CRTT.RequestID",
          "name": "",
          "type": "uint128"
        }
      ],
      "stateMutability": "view",
      "type": "function"
    },
    {
      "inputs": [],
      "name": "last_request_id",
      "outputs": [
        {
          "internalType": "CRTT.RequestID",
          "name": "",
          "type": "uint128"
        }
      ],
      "stateMutability": "view",
      "type": "function"
    },
    {
      "inputs": [
        {
          "internalType": "enum CRTT.Operation",
          "name": "",
          "type": "uint8"
        }
      ],
      "name": "operation_cost",
      "outputs": [
        {
          "internalType": "uint256",
          "name": "",
          "type": "uint256"
        }
      ],
      "stateMutability": "view",
      "type": "function"
    },
    {
      "inputs": [],
      "name": "owner",
      "outputs": [
        {
          "internalType": "address",
          "name": "",
          "type": "address"
        }
      ],
      "stateMutability": "view",
      "type": "function"
    },
    {
      "inputs": [
        {
          "internalType": "CRTT.RequestID",
          "name": "",
          "type": "uint128"
        }
      ],
      "name": "pending_confidential_coin_requests",
      "outputs": [
        {
          "components": [
            {
              "internalType": "bool",
              "name": "is_mint_request",
              "type": "bool"
            },
            {
              "internalType": "CRTT.EUint32",
              "name": "sender_balance",
              "type": "uint128"
            },
            {
              "internalType": "CRTT.EUint32",
              "name": "receiver_balance",
              "type": "uint128"
            },
            {
              "internalType": "uint256",
              "name": "plaintext_transfer_amount",
              "type": "uint256"
            },
            {
              "internalType": "bytes",
              "name": "transfer_amount",
              "type": "bytes"
            },
            {
              "internalType": "bool",
              "name": "consider_amount_negative",
              "type": "bool"
            },
            {
              "internalType": "bytes[]",
              "name": "sender_balance_storage_key_acl",
              "type": "bytes[]"
            },
            {
              "internalType": "bytes[]",
              "name": "receiver_balance_storage_key_acl",
              "type": "bytes[]"
            },
            {
              "internalType": "uint256",
              "name": "callback_gas",
              "type": "uint256"
            },
            {
              "internalType": "uint256",
              "name": "payment_callback_gas",
              "type": "uint256"
            },
            {
              "internalType": "function (struct CRTT.ConfidentialCoinResponse) payable external",
              "name": "callback",
              "type": "function"
            },
            {
              "internalType": "function (CRTT.RequestID) payable external",
              "name": "payment_callback",
              "type": "function"
            }
          ],
          "internalType": "struct CRTT.ConfidentialCoinRequest",
          "name": "request",
          "type": "tuple"
        },
        {
          "internalType": "uint256",
          "name": "payment",
          "type": "uint256"
        },
        {
          "internalType": "uint256",
          "name": "op_cost",
          "type": "uint256"
        }
      ],
      "stateMutability": "view",
      "type": "function"
    },
    {
      "inputs": [
        {
          "internalType": "CRTT.RequestID",
          "name": "",
          "type": "uint128"
        }
      ],
      "name": "pending_data_requests",
      "outputs": [
        {
          "components": [
            {
              "internalType": "enum CRTT.DataRequestedType",
              "name": "requested_type",
              "type": "uint8"
            },
            {
              "internalType": "CRTT.DataKey",
              "name": "key",
              "type": "uint128"
            },
            {
              "internalType": "uint256",
              "name": "payment",
              "type": "uint256"
            },
            {
              "internalType": "uint256",
              "name": "callback_gas",
              "type": "uint256"
            },
            {
              "internalType": "uint256",
              "name": "payment_callback_gas",
              "type": "uint256"
            },
            {
              "internalType": "function (struct CRTT.DataRetrievalResponse) payable external",
              "name": "callback",
              "type": "function"
            },
            {
              "internalType": "function (CRTT.RequestID) payable external",
              "name": "payment_callback",
              "type": "function"
            },
            {
              "internalType": "CRTT.DataKey",
              "name": "reencryption_key",
              "type": "uint128"
            }
          ],
          "internalType": "struct CRTT.DataRetrievalRequest",
          "name": "request",
          "type": "tuple"
        },
        {
          "internalType": "uint256",
          "name": "payment",
          "type": "uint256"
        },
        {
          "internalType": "uint256",
          "name": "op_cost",
          "type": "uint256"
        }
      ],
      "stateMutability": "view",
      "type": "function"
    },
    {
      "inputs": [
        {
          "internalType": "CRTT.RequestID",
          "name": "",
          "type": "uint128"
        }
      ],
      "name": "pending_data_store_requests",
      "outputs": [
        {
          "components": [
            {
              "components": [
                {
                  "internalType": "enum CRTT.DataType",
                  "name": "data_type",
                  "type": "uint8"
                },
                {
                  "internalType": "enum CRTT.OperandEncryptionScheme",
                  "name": "encryption_scheme",
                  "type": "uint8"
                },
                {
                  "internalType": "bytes",
                  "name": "data",
                  "type": "bytes"
                }
              ],
              "internalType": "struct CRTT.ValueOperand",
              "name": "operand",
              "type": "tuple"
            },
            {
              "internalType": "uint256",
              "name": "payment",
              "type": "uint256"
            },
            {
              "internalType": "uint256",
              "name": "acceptance_callback_gas",
              "type": "uint256"
            },
            {
              "internalType": "uint256",
              "name": "submission_callback_gas",
              "type": "uint256"
            },
            {
              "internalType": "uint256",
              "name": "payment_callback_gas",
              "type": "uint256"
            },
            {
              "internalType": "function (struct CRTT.DataStoreResponse) payable external",
              "name": "acceptance_callback",
              "type": "function"
            },
            {
              "internalType": "function (struct CRTT.DataStoreResponse) payable external",
              "name": "submission_callback",
              "type": "function"
            },
            {
              "internalType": "function (CRTT.RequestID) payable external",
              "name": "payment_callback",
              "type": "function"
            }
          ],
          "internalType": "struct CRTT.DataStoreRequest",
          "name": "request",
          "type": "tuple"
        },
        {
          "internalType": "uint256",
          "name": "payment",
          "type": "uint256"
        },
        {
          "internalType": "uint256",
          "name": "op_cost",
          "type": "uint256"
        }
      ],
      "stateMutability": "view",
      "type": "function"
    },
    {
      "inputs": [
        {
          "internalType": "CRTT.RequestID",
          "name": "",
          "type": "uint128"
        }
      ],
      "name": "pending_requests",
      "outputs": [
        {
          "components": [
            {
              "internalType": "enum CRTT.Operation",
              "name": "operation",
              "type": "uint8"
            },
            {
              "components": [
                {
                  "internalType": "enum CRTT.DataType",
                  "name": "data_type",
                  "type": "uint8"
                },
                {
                  "internalType": "enum CRTT.OperandLocation",
                  "name": "location",
                  "type": "uint8"
                },
                {
                  "internalType": "enum CRTT.OperandEncryptionScheme",
                  "name": "encryption_scheme",
                  "type": "uint8"
                },
                {
                  "internalType": "bytes",
                  "name": "data",
                  "type": "bytes"
                }
              ],
              "internalType": "struct CRTT.Operand",
              "name": "op1",
              "type": "tuple"
            },
            {
              "components": [
                {
                  "internalType": "enum CRTT.DataType",
                  "name": "data_type",
                  "type": "uint8"
                },
                {
                  "internalType": "enum CRTT.OperandLocation",
                  "name": "location",
                  "type": "uint8"
                },
                {
                  "internalType": "enum CRTT.OperandEncryptionScheme",
                  "name": "encryption_scheme",
                  "type": "uint8"
                },
                {
                  "internalType": "bytes",
                  "name": "data",
                  "type": "bytes"
                }
              ],
              "internalType": "struct CRTT.Operand",
              "name": "op2",
              "type": "tuple"
            },
            {
              "internalType": "uint256",
              "name": "payment",
              "type": "uint256"
            },
            {
              "internalType": "uint256",
              "name": "acceptance_callback_gas",
              "type": "uint256"
            },
            {
              "internalType": "uint256",
              "name": "submission_callback_gas",
              "type": "uint256"
            },
            {
              "internalType": "uint256",
              "name": "payment_callback_gas",
              "type": "uint256"
            },
            {
              "internalType": "function (struct CRTT.Response) payable external",
              "name": "acceptance_callback",
              "type": "function"
            },
            {
              "internalType": "function (struct CRTT.Response) payable external",
              "name": "submission_callback",
              "type": "function"
            },
            {
              "internalType": "function (CRTT.RequestID) payable external",
              "name": "payment_callback",
              "type": "function"
            }
          ],
          "internalType": "struct CRTT.Request",
          "name": "request",
          "type": "tuple"
        },
        {
          "internalType": "uint256",
          "name": "payment",
          "type": "uint256"
        },
        {
          "internalType": "uint256",
          "name": "op_cost",
          "type": "uint256"
        }
      ],
      "stateMutability": "view",
      "type": "function"
    },
    {
      "inputs": [],
      "name": "renounceOwnership",
      "outputs": [],
      "stateMutability": "nonpayable",
      "type": "function"
    },
    {
      "inputs": [
        {
          "internalType": "uint256",
          "name": "price",
          "type": "uint256"
        }
      ],
      "name": "setConfidentialCoinRequestPrice",
      "outputs": [],
      "stateMutability": "nonpayable",
      "type": "function"
    },
    {
      "inputs": [
        {
          "internalType": "uint256",
          "name": "price",
          "type": "uint256"
        }
      ],
      "name": "setDataStorePrice",
      "outputs": [],
      "stateMutability": "nonpayable",
      "type": "function"
    },
    {
      "inputs": [
        {
          "internalType": "uint256",
          "name": "price",
          "type": "uint256"
        }
      ],
      "name": "setDecryptionPrice",
      "outputs": [],
      "stateMutability": "nonpayable",
      "type": "function"
    },
    {
      "inputs": [
        {
          "internalType": "enum CRTT.Operation",
          "name": "operation",
          "type": "uint8"
        },
        {
          "internalType": "uint256",
          "name": "price",
          "type": "uint256"
        }
      ],
      "name": "setPrice",
      "outputs": [],
      "stateMutability": "nonpayable",
      "type": "function"
    },
    {
      "inputs": [
        {
          "components": [
            {
              "internalType": "enum CRTT.ResponseStatus",
              "name": "status",
              "type": "uint8"
            },
            {
              "internalType": "CRTT.RequestID",
              "name": "request_id",
              "type": "uint128"
            },
            {
              "internalType": "bool",
              "name": "success",
              "type": "bool"
            },
            {
              "internalType": "CRTT.EUint32",
              "name": "sender_balance",
              "type": "uint128"
            },
            {
              "internalType": "CRTT.EUint32",
              "name": "receiver_balance",
              "type": "uint128"
            }
          ],
          "internalType": "struct CRTT.ConfidentialCoinResponse",
          "name": "response",
          "type": "tuple"
        }
      ],
      "name": "submitConfidentialCoinResponse",
      "outputs": [],
      "stateMutability": "nonpayable",
      "type": "function"
    },
    {
      "inputs": [
        {
          "components": [
            {
              "internalType": "enum CRTT.ResponseStatus",
              "name": "status",
              "type": "uint8"
            },
            {
              "internalType": "CRTT.RequestID",
              "name": "request_id",
              "type": "uint128"
            },
            {
              "components": [
                {
                  "internalType": "enum CRTT.DataType",
                  "name": "data_type",
                  "type": "uint8"
                },
                {
                  "internalType": "enum CRTT.OperandEncryptionScheme",
                  "name": "encryption_scheme",
                  "type": "uint8"
                },
                {
                  "internalType": "bytes",
                  "name": "data",
                  "type": "bytes"
                }
              ],
              "internalType": "struct CRTT.ValueOperand",
              "name": "result",
              "type": "tuple"
            }
          ],
          "internalType": "struct CRTT.DataRetrievalResponse",
          "name": "response",
          "type": "tuple"
        }
      ],
      "name": "submitDataRetrievalResponse",
      "outputs": [],
      "stateMutability": "nonpayable",
      "type": "function"
    },
    {
      "inputs": [
        {
          "components": [
            {
              "internalType": "enum CRTT.ResponseStatus",
              "name": "status",
              "type": "uint8"
            },
            {
              "internalType": "CRTT.RequestID",
              "name": "request_id",
              "type": "uint128"
            },
            {
              "internalType": "CRTT.DataKey",
              "name": "result",
              "type": "uint128"
            }
          ],
          "internalType": "struct CRTT.DataStoreResponse",
          "name": "response",
          "type": "tuple"
        }
      ],
      "name": "submitDataStoreResponse",
      "outputs": [],
      "stateMutability": "nonpayable",
      "type": "function"
    },
    {
      "inputs": [
        {
          "components": [
            {
              "internalType": "enum CRTT.ResponseStatus",
              "name": "status",
              "type": "uint8"
            },
            {
              "internalType": "CRTT.RequestID",
              "name": "request_id",
              "type": "uint128"
            },
            {
              "components": [
                {
                  "internalType": "enum CRTT.DataType",
                  "name": "data_type",
                  "type": "uint8"
                },
                {
                  "internalType": "enum CRTT.OperandLocation",
                  "name": "location",
                  "type": "uint8"
                },
                {
                  "internalType": "enum CRTT.OperandEncryptionScheme",
                  "name": "encryption_scheme",
                  "type": "uint8"
                },
                {
                  "internalType": "bytes",
                  "name": "data",
                  "type": "bytes"
                }
              ],
              "internalType": "struct CRTT.Operand",
              "name": "result",
              "type": "tuple"
            }
          ],
          "internalType": "struct CRTT.Response",
          "name": "response",
          "type": "tuple"
        }
      ],
      "name": "submitResponse",
      "outputs": [],
      "stateMutability": "nonpayable",
      "type": "function"
    },
    {
      "inputs": [
        {
          "internalType": "address",
          "name": "newOwner",
          "type": "address"
        }
      ],
      "name": "transferOwnership",
      "outputs": [],
      "stateMutability": "nonpayable",
      "type": "function"
    },
    {
      "inputs": [
        {
          "internalType": "uint128",
          "name": "amount",
          "type": "uint128"
        }
      ],
      "name": "withdraw",
      "outputs": [],
      "stateMutability": "nonpayable",
      "type": "function"
    },
    {
      "inputs": [],
      "name": "withdraw",
      "outputs": [],
      "stateMutability": "nonpayable",
      "type": "function"
    }
  ],
  "bytecode": "0x60808060405234608e57331560785760008054336001600160a01b0319821681178355916001600160a01b03909116907f8be0079c531659141344cd1fd0a4f28419497f9722a3daafe3b4186f6b6457e09080a360006001556000600255600060085560006009556000600a5561459e90816100948239f35b631e4fbdf760e01b600052600060045260246000fd5b600080fdfe6080604052600436101561001257600080fd5b6000803560e01c806302387a7b1461387d57806302acabff1461385c57806306373eea1461383b57806312065fe01461380e5780631a2bb4d21461336657806323c005be1461332957806328fe1e9c1461312757806332168a20146130fe578063328bac89146129255780633ccfd60b146128d65780633e7aaa68146128b357806341823967146126f15780634e362ea0146121e357806367bc886814611e635780636a00670b14611e22578063715018a614611dc8578063795a6d031461195357806380370d07146117ee5780638da5cb5b146117c75780638ec355791461118b578063920402ab1461116d5780639c5ad53014610b16578063a2d5f6ab14610940578063bbbbd930146102a2578063c29d6ba01461027f578063c608106d14610261578063e377138f14610243578063f2fde38b146101b5578063f5dca5d3146101925763ff6d55b01461016757600080fd5b3461018f578060031936011261018f576001546040516001600160801b039091168152602090f35b80fd5b503461018f57602036600319011261018f576101ac6143d3565b600435600a5580f35b503461018f57602036600319011261018f576004356001600160a01b0381169081900361023f576101e46143d3565b801561022b5781546001600160a01b03198116821783556001600160a01b03167f8be0079c531659141344cd1fd0a4f28419497f9722a3daafe3b4186f6b6457e08380a380f35b631e4fbdf760e01b82526004829052602482fd5b5080fd5b503461018f578060031936011261018f576020600a54604051908152f35b503461018f578060031936011261018f576020600854604051908152f35b503461018f57602036600319011261018f576102996143d3565b60043560085580f35b50602036600319011261018f57600435906001600160401b03821161018f57610140600319833603011261018f57604061030481516102e18382613a88565b6011815270115e1958dd5d1a5b99c814995c5d595cdd607a1b6020820152614457565b8260040135600881101561093c5761031b8161398e565b61034a81835161032b8582613a88565b600d81526c13dc195c985d1a5bdb8e880959609a1b60208201526143fc565b6103538161398e565b8083526007602052818320549361036b851515614146565b60648101359161037c8334146140e2565b65943f651930008601918287116109265760848101359261039d8482613e6e565b6103ac60a48401358092613e6e565b916103c76103bf60c48601358095613e6e565b341015613e7b565b61040088516103d68a82613a88565b601881527714995c5d595cdd081c995c5d5a5c995b595b9d1cc81b595d60421b6020820152614457565b6001549981906001600160801b03610419818e166144dd565b166001600160801b03199c909c168c1760015511610926578261043b91613e6e565b9487519661044888613a1a565b88519561045487613a35565b865260248501356001600160401b038111610922576104799060043691880101614364565b602087015260448501356001600160401b03811161092257916104ee9593916104ac610124969460043691880101614364565b8b8901526060880152608087015260a086015260c08501526104d060e48201613fba565b60e08501526104e26101048201613fba565b61010085015201613fba565b6101208201528252602082019434865283830191825284526003602052828420915194855161051c8161398e565b6105258161398e565b60ff801985541691161783556001830160208701519061054f825161054981613c56565b8261412e565b6020820151600281101561087b57815461ff0062ff00008986015161057381613c56565b61057c81613c56565b60101b169260081b169062ffff001916171790556060600285019101518051906001600160401b038211610867576105b483546139ae565b601f81116108f2575b50602090601f831160011461088f576105ee92918991836107b4575b50508160011b916000199060031b1c19161790565b90555b60038301958481015196610609885161054981613c56565b6020880151600281101561087b57815461ff0062ff0000898c015161062d81613c56565b61063681613c56565b60101b169260081b169062ffff001916171790556060600485019701519687516001600160401b0381116108675760209861067183546139ae565b601f811161082e575b50899089601f84116001146107bf578361012094600d9998979461073997946106b794926107b45750508160011b916000199060031b1c19161790565b90555b606081015160058801556080810151600688015560a0810151600788015560c0810151600888015561070160e082015163ffffffff8160601c918b1c169060098a016140b8565b61072161010082015163ffffffff8160601c918b1c1690600a8a016140b8565b015180871c63ffffffff169060601c600b87016140b8565b51600c84015551910155600080516020614549833981519152606060018060801b036001541693835190858252868201523384820152a16107ae8282516107808482613a88565b601e81527f5265717565737420656d697474656420666f7220726571756573742025640000868201526143fc565b51908152f35b0151905038806105d9565b50838a52818a209190601f1984168b5b818110610817575093600d9897969361073996936001938361012098106107fe575b505050811b0190556106ba565b015160001960f88460031b161c191690553880806107f1565b92938d6001819287860151815501950193016107cf565b61085790848b528b8b20601f850160051c8101918d861061085d575b601f0160051c0190613fcf565b3861067a565b909150819061084a565b634e487b7160e01b88526041600452602488fd5b634e487b7160e01b88526021600452602488fd5b8389528189209190601f1984168a5b8181106108da57509084600195949392106108c1575b505050811b0190556105f1565b015160001960f88460031b161c191690553880806108b4565b9293602060018192878601518155019501930161089e565b61091c90848a5260208a20601f850160051c8101916020861061085d57601f0160051c0190613fcf565b386105bd565b8a80fd5b634e487b7160e01b600052601160045260246000fd5b8280fd5b503461018f57602036600319011261018f57610100906060906040906001600160801b0361096c613916565b16815260056020522060405161098181613a51565b60405161098d81613a1a565b60ff835481811661099d81613c56565b835260081c166109ac81613c56565b60208201526109bd60018401613aa9565b604082810191909152908252600283015460208301908152600384015483830190815260048501548685019081526005860154608086019081526006870154600160201b600160c01b03811663ffffffff9091161790941b60a08601908152929593919290916007850154600160201b600160c01b03811663ffffffff9091161760401b60c08701908152926008860154600160201b600160c01b03811663ffffffff9091161760401b60e0880190815294610ac96040600a60098a01549901549981519d8d8f9e928f938452519201528c610160825191610a9e83613c56565b015260208101516101808e610ab283613c56565b0152015160606101a08d01526101c08c0190613bbc565b985160808b01525160a08a01525160c08901525160e0880152516001600160401b031990811661010088015290518116610120870152905116610140850152602084015260408301520390f35b503461018f57610b253661395b565b610b2d6143d3565b5a8135600881101561116957610b428161398e565b8381159283600014610f945760208501610bbb6001600160801b03610b6683613d30565b16604051610b75606082613a88565b602e81527f43616c6c696e672074686520616363657074616e63652063616c6c6261636b2060208201526d199bdc881c995c5d595cdd08095960921b60408201526143fc565b6001600160801b03610bcc82613d30565b1683526003602052610bf2633b9aca00600660408620015404610bed61418c565b6143fc565b6001600160801b03610c0382613d30565b1683526003602090815260408420600901549081901c6001600160a01b03169163ffffffff909116906001600160801b0390610c3e90613d30565b1684526003602052633b9aca0060066040862001540491803b15610f025784928392604051968793849260e01b835282610c7b8d6004830161429a565b0393f19283610f7b575b5050610cda9115600014610f3657610cd3604051610ca4604082613a88565b601c81527f4572726f7220696e20416363657074616e63652043616c6c6261636b000000006020820152614457565b5a90613d96565b6161a8811015610f065750610d2c906020610cf7865b3a90613da3565b9401936001600160801b03610d0b86613d30565b1686526003602052610d25600d6040882001918254613e6e565b905561398e565b15610d35575080f35b6001600160801b03610d4682613d30565b168252600360205260408220600c0154610d81906001600160801b03610d6b84613d30565b1684526003602052600d60408520015490613d96565b80610e05575b506001600160801b0390610d9a90613d30565b168152600360205280600d60408220828155826001820155610dbe60028201613fe6565b826003820155610dd060048201613fe6565b82600582015582600682015582600782015582600882015582600982015582600a82015582600b82015582600c820155015580f35b610e286001600160801b03610e1984613d30565b1682610e23614255565b614493565b6001600160801b03610e3983613d30565b1683526003602090815260408420600b01549081901c6001600160a01b031691849163ffffffff166001600160801b03610e7286613d30565b1683526003602052633b9aca0060086040852001540493610e9286613d30565b91813b15610f02578493602492604051978895869460e01b855260018060801b03166004850152f19182610eed575b5050610edd57610ed7610ed2613e37565b614457565b38610d87565b610ee8610ed2613dfc565b610ed7565b81610ef791613a88565b61093c578238610ec1565b8480fd5b6161a7198101908111610f2257906020610cf7610d2c93610cf0565b634e487b7160e01b85526011600452602485fd5b610f76604051610f47604082613a88565b601e81527f416363657074616e63652043616c6c6261636b207375636365737366756c00006020820152614457565b610cd3565b81610f8591613a88565b610f90578538610c85565b8580fd5b602085016110016001600160801b03610fac83613d30565b16604051610fbb606082613a88565b602e81527f43616c6c696e6720746865207375626d697373696f6e2063616c6c6261636b2060208201526d199bdc881c995c5d595cdd08095960921b60408201526143fc565b6001600160801b0361101282613d30565b1683526003602052611033633b9aca00600760408620015404610bed6141c7565b6001600160801b0361104482613d30565b1683526003602090815260408420600a01549081901c6001600160a01b03169163ffffffff909116906001600160801b039061107f90613d30565b1684526003602052633b9aca0060076040862001540491803b15610f025784928392604051968793849260e01b8352826110bc8d6004830161429a565b0393f19283611154575b5050610cda911560001461111457610f766040516110e5604082613a88565b601c81527f4572726f7220696e205375626d697373696f6e2043616c6c6261636b000000006020820152614457565b610f76604051611125604082613a88565b601e81527f5375626d697373696f6e2043616c6c6261636b207375636365737366756c00006020820152614457565b8161115e91613a88565b610f905785386110c6565b8380fd5b503461018f578060031936011261018f576020600954604051908152f35b503461018f57606036600319011261018f576111a56143d3565b5a600435600881101561093c576111bb8161398e565b82811592836000146115d0576001600160801b036111d7613d1a565b1661123c6060916040516111eb8482613a88565b603981527f43616c6c696e672074686520616363657074616e63652063616c6c6261636b20602082015278199bdc8819185d18481cdd1bdc99481c995c5d595cdd080959603a1b60408201526143fc565b6001600160801b0361124c613d1a565b168352600560205261126d633b9aca00600360408620015404610bed61418c565b6001600160801b0361127d613d1a565b1683526005602090815260408420600601549081901c6001600160a01b03169063ffffffff166001600160801b036112b3613d1a565b1685526005602052633b9aca0060036040872001540491803b15610f905785928392604051978893849260e01b8352826112ef60048201614202565b0393f193846115bb575b5050611357921560001461156957610cd3906113186040519182613a88565b602781527f4572726f7220696e20446174612053746f726520416363657074616e63652043602082015266616c6c6261636b60c81b6040820152614457565b6161a881101561153b575061139a906113703a85613da3565b6001600160801b03611380613d1a565b1685526005602052610d25600a6040872001918254613e6e565b156113a25780f35b6001600160801b036113b2613d1a565b168152600560205260408120600901546113ec906001600160801b036113d6613d1a565b1683526005602052600a60408420015490613d96565b80611456575b506001600160801b03611403613d1a565b168152600560205280600a6040822082815561142160018201613fe6565b826002820155826003820155826004820155826005820155826006820155826007820155826008820155826009820155015580f35b6114696001600160801b03610e19613d1a565b6001600160801b03611479613d1a565b1682526005602090815260408320600801549081901c6001600160a01b031691839163ffffffff166001600160801b036114b1613d1a565b1683526005602052633b9aca00600560408520015404936114d0613d1a565b91813b15610f02578493602492604051978895869460e01b855260018060801b03166004850152f19182611526575b505061151657611510610ed2613e37565b386113f2565b611521610ed2613dfc565b611510565b8161153091613a88565b61023f5781386114ff565b6161a7198101908111611555579061137061139a92610cf0565b634e487b7160e01b84526011600452602484fd5b610f769061157a6040519182613a88565b602981527f446174612053746f726520416363657074616e63652043616c6c6261636b20736020820152681d58d8d95cdcd99d5b60ba1b6040820152614457565b816115c591613a88565b610f905785386112f9565b6001600160801b036115e0613d1a565b166116456060916040516115f48482613a88565b603981527f43616c6c696e6720746865207375626d697373696f6e2063616c6c6261636b20602082015278199bdc8819185d18481cdd1bdc99481c995c5d595cdd080959603a1b60408201526143fc565b6001600160801b03611655613d1a565b1683526005602052611676633b9aca00600460408620015404610bed6141c7565b6001600160801b03611686613d1a565b1683526005602090815260408420600701549081901c6001600160a01b03169063ffffffff166001600160801b036116bc613d1a565b1685526005602052633b9aca0060046040872001540491803b15610f905785928392604051978893849260e01b8352826116f860048201614202565b0393f193846117b2575b5050611357921560001461176057610f76906117216040519182613a88565b602781527f4572726f7220696e20446174612053746f7265205375626d697373696f6e2043602082015266616c6c6261636b60c81b6040820152614457565b610f76906117716040519182613a88565b602981527f446174612053746f7265205375626d697373696f6e2043616c6c6261636b20736020820152681d58d8d95cdcd99d5b60ba1b6040820152614457565b816117bc91613a88565b610f90578538611702565b503461018f578060031936011261018f57546040516001600160a01b039091168152602090f35b503461018f57602036600319011261018f57610140906040906001600160801b03611817613916565b1681526004602052206040519061182d82613a51565b80549060ff821661183d81613c56565b835260089190911c6001600160801b031660208301908152600182015460408085019182526002840154606086019081526003850154608087019081526004860154600160201b600160c01b03811663ffffffff9091161790921b60a0870190815293949390916005850154600160201b600160c01b03811663ffffffff9091161760401b60c088019081529260018060801b036006870154169460e08901958652600860078801549701549760405199516118f881613c56565b8a52516001600160801b0390811660208b0152905160408a0152905160608901529051608088015290516001600160401b031990811660a0880152915190911660c086015290511660e0840152610100830152610120820152f35b503461018f5760a036600319011261018f5761196d6143d3565b5a6001600160801b0361197e613d1a565b16906119e06060926040516119938582613a88565b603581527f43616c6c696e67207468652063616c6c6261636b20666f7220636f6e666964656020820152741b9d1a585b0818dbda5b881c995c5d595cdd080959605a1b60408201526143fc565b6001600160801b036119f0613d1a565b1683526006602052611a11633b9aca00600760408620015404610bed61418c565b6001600160801b03611a21613d1a565b16835260066020908152604084206009015463ffffffff811693918591901c6001600160a01b03166001600160801b03611a59613d1a565b1682526006602052633b9aca0060076040842001540490803b1561093c576040519560e01b8652600435600881101561116957611a958161398e565b60048701526001600160801b03611aaa613931565b1660248701526044358015158091036111695760448701526064356001600160801b038116908190036111695760648701526084356001600160801b038116919082900361116957868460a492819583956084850152f19384611db3575b5050611b619215600014611d6657610cd390611b276040519182613a88565b602281527f4572726f7220696e20436f6e666964656e7469616c436f696e2043616c6c6261602082015261636b60f01b6040820152614457565b6161a8811015611d395750611bc8611b793a83613da3565b6001600160801b03611b89613d1a565b168352600660205260408320600b0154611bc3906001600160801b03611bad613d1a565b1685526006602052600c60408620015490613d96565b613d96565b80611c4a575b506001600160801b03611bdf613d1a565b168152600660205280600c60408220828155826001820155826002820155611c0960038201613fe6565b826004820155611c1b60058201614035565b611c2760068201614035565b82600782015582600882015582600982015582600a82015582600b820155015580f35b611c676001600160801b03611c5d613d1a565b1682610e23613db6565b6001600160801b03611c77613d1a565b1682526006602090815260408320600a01549081901c6001600160a01b031691839163ffffffff166001600160801b03611caf613d1a565b1683526006602052633b9aca0060086040852001540493611cce613d1a565b91813b15610f02578493602492604051978895869460e01b855260018060801b03166004850152f19182611d24575b5050611d1457611d0e610ed2613e37565b38611bce565b611d1f610ed2613dfc565b611d0e565b81611d2e91613a88565b61023f578138611cfd565b6161a7198101908111611d5257611b79611bc891610cf0565b634e487b7160e01b82526011600452602482fd5b610f7690611d776040519182613a88565b602481527f436f6e666964656e7469616c436f696e2043616c6c6261636b207375636365736020820152631cd99d5b60e21b6040820152614457565b81611dbd91613a88565b611169578338611b08565b503461018f578060031936011261018f57611de16143d3565b80546001600160a01b03198116825581906001600160a01b03167f8be0079c531659141344cd1fd0a4f28419497f9722a3daafe3b4186f6b6457e08280a380f35b503461018f57604036600319011261018f57600435600881101561023f57611e486143d3565b611e518161398e565b81526007602052602435604082205580f35b5061010036600319011261018f576040611eb18151611e828382613a88565b602081527f457865637574696e6720446174612052657472696576616c20526571756573746020820152614457565b60443590611ec08234146140e2565b65943f65193000606435928382019182811161092657611ee36084358094613e6e565b60043593600385101591826121df57611efb86613c56565b6002861480156121c3575b90611f17916121a657341015613e7b565b606096611f678751611f298a82613a88565b602781527f446174612052657472696576616c205265717565737420726571756972656d656020820152661b9d1cc81b595d60ca1b89820152614457565b6001546001600160801b0319611f80608083901c6144dd565b60801b169060018060801b03161793846001556008549081018091116109265782611faa91613e6e565b94875196611fb788613a1a565b885194611fc386613a51565b610922578452611fd1613931565b60208501528784015287830152608082015260a4356001600160401b0319811681036121a25760a082015260c4356001600160401b0319811681036121a25760c082015260e4356001600160801b03811681036121a257926107ae9492826020999560e0600895015284528884019034825287850192835260801c8552600489528685209351805161206281613c56565b61206b81613c56565b85548b830151610100600160881b0360089190911b1660ff929092166001600160881b031990911617178555878101516001860155888101516002860155608081015160038601556120d160a082015163ffffffff818c1c918b1c1690600488016140b8565b6120ef60c082015163ffffffff818c1c918b1c1690600588016140b8565b60e001516006850180546001600160801b0319166001600160801b0392909216919091179055516007840155519101555060018054835160809190911c80825286820192909252338185015290938491600080516020614549833981519152908290a161215e84519182613a88565b602e81527f446174612052657472696576616c205265717565737420656d69747465642c20868201526d199bdc881c995c5d595cdd08095960921b848201526143fc565b8780fd5b6121be6121b66008548093613e6e565b911515614146565b6103bf565b509150611f1788926121d487613c56565b905060018614611f06565b8880fd5b50602036600319011261018f57600435906001600160401b03821161018f57610100600319833603011261018f57604061225181516122228382613a88565b601c81527f457865637574696e6720446174612053746f72652052657175657374000000006020820152614457565b60095491821561269f57602484013561226b8134146140e2565b65943f6519300094848601918287116109265761228d60448301358094613e6e565b9161229d60648201358094613e6e565b6122af6103bf60848401358093613e6e565b6060976122fb88516122c18b82613a88565b602381527f446174612053746f7265205265717565737420726571756972656d656e7473206020820152621b595d60ea1b8a820152614457565b600254996001600160801b03612312818d166144dd565b166001600160801b03199b909b168b176002558101908110610926578161233891613e6e565b9387519561234587613a1a565b88519461235186613a51565b84600401356001600160401b03811161269b5785018b600319823603011261269b578a519061237f82613a1a565b600481013560038110156126975782526024810135600381101561269757602083015260448101356001600160401b03811161269757916123d061241098969492600460e499979536920101613ee6565b8d820152885260208801528a8701528a86015260808501526123f460a48201613fba565b60a085015261240560c48201613fba565b60c085015201613fba565b60e08201528252602082019534875284830191825283526005602052838320915195865196612449885161244381613c56565b8561412e565b602088015161245781613c56565b61246081613c56565b61ff0085549160081b169061ff00191617845585600185019801519788516001600160401b0381116126835760209961249983546139ae565b601f8111612655575b508a90601f83116001146125e35793600a95936124e28461255d9560e0958d9c9b996107ae9e926107b45750508160011b916000199060031b1c19161790565b90555b808c015160028801558981015160038801558a81015160048801556080810151600588015560a081015161252890808c1c63ffffffff16908d1c60068a016140b8565b60c081015161254690808c1c63ffffffff16908d1c60078a016140b8565b015180891c63ffffffff16908a1c600887016140b8565b516009840155519101558360008051602061454983398151915260018060801b0360025416958693865190858252506002898201523387820152a16125a484519182613a88565b602981527f446174612053746f7265205265717565737420656d697474656420666f7220728682015268195c5d595cdd08095960ba1b848201526143fc565b8389528189209190601f1984168a5b81811061263e57508460e0946107ae9c9b9a9894600a9a989461255d9860019510612625575b505050811b0190556124e5565b015160001960f88460031b161c19169055388080612618565b92938e6001819287860151815501950193016125f2565b61267d90848a528c8a20601f850160051c8101918e861061085d57601f0160051c0190613fcf565b386124a2565b634e487b7160e01b87526041600452602487fd5b8b80fd5b8980fd5b815162461bcd60e51b815260206004820152602560248201527f446174612053746f7265206f7065726174696f6e206973206e6f7420737570706044820152641bdc9d195960da1b6064820152608490fd5b503461018f57602036600319011261018f576101a0906040906001600160801b0361271a613916565b1681526003602052206040519061273082613a35565b60ff81541661273e8161398e565b825261274c60018201613c60565b916020810192835261276060038301613c60565b6040828101918252600584015460608401908152600685015460808501908152600786015460a08601908152600887015460c087019081526009880154600160201b600160c01b03811663ffffffff9091161790941b60e087019081529296949391929190600a860154600160201b600160c01b03811663ffffffff9091161760401b610100880190815293600b870154600160201b600160c01b03811663ffffffff9091161760401b61012089019081529561286490612851600d600c8b01549a01549a6040519e8f9e8f92606084525161283b8161398e565b6060840152519161014060808201520190613ccc565b90518c8203605f190160a08e0152613ccc565b985160c08b01525160e08a01525161010089015251610120880152516001600160401b031990811661014088015290518116610160870152905116610180850152602084015260408301520390f35b503461018f57602036600319011261018f576128cd6143d3565b60043560095580f35b503461018f578060031936011261018f576128ef6143d3565b8080808060018060a01b03815416479082821561291c575bf1156129105780f35b604051903d90823e3d90fd5b506108fc612907565b50602036600319011261018f576004356001600160401b03811161023f57610180600319823603011261023f5760609061299f6040516129658482613a88565b602281527f457865637574696e6720436f6e666964656e7469616c436f696e2052657175656020820152611cdd60f21b6040820152614457565b600a549081156130a55765943f65193000828101808211610926576129cd6103bf6101048501358093613e6e565b612a1e6040516129dd8782613a88565b602981527f436f6e666964656e7469616c436f696e205265717565737420726571756972656020820152681b595b9d1cc81b595d60ba1b6040820152614457565b6002546001600160801b0319612a37608083901c6144dd565b60801b169060018060801b0316179182600255840180941161092657612a636101248401358095613e6e565b9260405194612a7186613a1a565b60405192612a7e846139e8565b612a8a83600401613ed9565b8452612a9860248401613947565b6020850152612aa960448401613947565b604085015260648301358885015260848301356001600160401b03811161269b57612ada9060043691860101613ee6565b6080850152612aeb60a48401613ed9565b60a085015260c48301356001600160401b03811161269b57612b139060043691860101613f3c565b60c085015260e48301356001600160401b03811161269b57612b3b9060043691860101613f3c565b60e08501526101008401526101208301526101448101356001600160401b0319811681036121a257610140830152612b769061016401613fba565b610160820152835260208301903482526040840192835260801c85526006602052604085209251612bb681511515859060ff801983541691151516179055565b60208101518454610100600160881b03191660089190911b610100600160881b031617845560408101516001850180546001600160801b0319166001600160801b03929092169190911790558481015160028501556080810151805160038601916001600160401b03821161309157612c2f83546139ae565b601f8111613061575b50602090601f8311600114612ffe57612c6892918a91836107b45750508160011b916000199060031b1c19161790565b90555b612c8a60a08201511515600486019060ff801983541691151516179055565b6005840160c0820151906020825192612ca3848461406f565b019088526020882088915b838310612ef557505050506006840160e0820151906020825192612cd2848461406f565b019088526020882088915b838310612dd857602089612dd08c8b600c8c8c612d466101608e61010081015160078801556101208101516008880155612d2d61014082015163ffffffff818d1c9160401c169060098a016140b8565b015163ffffffff818a1c9160401c1690600a87016140b8565b51600b8401555191015560025460801c92839160008051602061454983398151915282604051858152600389820152336040820152a150612d8a6040519182613a88565b602f81527f436f6e666964656e7469616c436f696e205265717565737420656d6974746564858201526e08199bdc881c995c5d595cdd080959608a1b60408201526143fc565b604051908152f35b80518051906001600160401b038211612ee1578b612df685546139ae565b601f8111612eb1575b50506020908c601f8411600114612e48578360019592946020948796612e3994926107b45750508160011b916000199060031b1c19161790565b85555b01920192019190612cdd565b9190601f198416868452828420935b818110612e995750936020936001969387969383889510612e80575b505050811b018555612e3c565b015160001960f88460031b161c19169055388080612e73565b92936020600181928786015181550195019301612e57565b60208287612eda945220601f850160051c8101916020861061085d57601f0160051c0190613fcf565b8b38612dff565b634e487b7160e01b8c52604160045260248cfd5b80518051906001600160401b038211612ee1578b612f1385546139ae565b601f8111612fce575b50506020908c601f8411600114612f65578360019592946020948796612f5694926107b45750508160011b916000199060031b1c19161790565b85555b01920192019190612cae565b9190601f198416868452828420935b818110612fb65750936020936001969387969383889510612f9d575b505050811b018555612f59565b015160001960f88460031b161c19169055388080612f90565b92936020600181928786015181550195019301612f74565b60208287612ff7945220601f850160051c8101916020861061085d57601f0160051c0190613fcf565b8b38612f1c565b838a52818a209190601f1984168b5b8181106130495750908460019594939210613030575b505050811b019055612c6b565b015160001960f88460031b161c19169055388080613023565b9293602060018192878601518155019501930161300d565b61308b90848b5260208b20601f850160051c8101916020861061085d57601f0160051c0190613fcf565b38612c38565b634e487b7160e01b89526041600452602489fd5b60405162461bcd60e51b815260206004820152602b60248201527f436f6e666964656e7469616c436f696e206f7065726174696f6e206973206e6f60448201526a1d081cdd5c1c1bdc9d195960aa1b6064820152608490fd5b503461018f578060031936011261018f576002546040516001600160801b039091168152602090f35b503461018f57602036600319011261018f576001600160801b03613149613916565b168152600660205260409020604051613161816139e8565b815460ff81161515825260081c6001600160801b039081166020830190815260018401549091166040830190815260028401546060840190815291936131a960038201613aa9565b60808501908152600482015460ff16151560a0860190815293906131cf60058401613b64565b60c087019081526131e260068501613b64565b60e088019081526007850154610100890190815260088601546101208a019081526009870154600160201b600160c01b03811663ffffffff9091161760401b6101408b0190815291989194909390600a880154600160201b600160c01b03811663ffffffff9091161760401b6101608c0190815296600b89015498600c015499604051809e819e606083525115156060830152600160801b600190039051169060800152600160801b6001900390511660a08d01525160c08c01525160e08b0161018090526101e08b016132b591613bbc565b915115156101008b015251898203605f19016101208b01526132d79190613bfd565b9051888203605f19016101408a01526132f09190613bfd565b955161016088015251610180870152516001600160401b03199081166101a08701529051166101c0850152602084015260408301520390f35b503461018f57602036600319011261018f57600435600881101561023f576020918161335660409361398e565b8152600783522054604051908152f35b503461018f576133753661395b565b61337d6143d3565b5a91602082016001600160801b0361339482613d30565b16936133f36060956040516133a98882613a88565b603281527f43616c6c696e67207468652063616c6c6261636b20666f7220646174612072656020820152711d1c9a595d985b081c995c5d595cdd08095960721b60408201526143fc565b6001600160801b0361340483613d30565b1683526004602052633b9aca006002604085200154049461344f604096875161342d8982613a88565b601081526f18d85b1b189858dad7d9d85cce88095960821b60208201526143fc565b6001600160801b0361346084613d30565b168452600460208181528786209091015463ffffffff811696911c6001600160a01b03166001600160801b0361349586613d30565b1686526004602052633b9aca00600289882001540491813b1561380a5788519760e01b885260206004890152803560088110156121a2576134d58161398e565b60248901526001600160801b036134eb87613947565b16604489015288810135605e19823603018112156121a25701836064890152803560038110156121a25761351e81613c56565b6084890152602081013560038110156121a257878993846135676135578498968f8761354a8699613c56565b60a4860152810190613d44565b8a60c485015260e4840191613d75565b0393f194856137f4575b506135bf929394156000146137ac5750610cd385516135908782613a88565b601f81527f4572726f7220696e20446174612052657472696576652043616c6c6261636b006020820152614457565b926161a884101561377b578293506136296136036135de853a90613da3565b6001600160801b036135ef86613d30565b168652600460205260078487200154613d96565b6001600160801b0361361485613d30565b16855260046020526008838620015490613d96565b9182613682575b600892506001600160801b039061364690613d30565b16835260046020528220828155826001820155826002820155826003820155826004820155826005820155826006820155826007820155015580f35b6136a06001600160801b0361369683613d30565b1684610e23613db6565b6001600160801b036136b182613d30565b16845260046020908152828520600501549081901c6001600160a01b03169363ffffffff909116906001600160801b036136ea84613d30565b1686526004602052633b9aca0060038588200154049461370984613d30565b90803b156121a257879384936024928851998a95869460e01b855260018060801b03166004850152f19384613761575b50506008921560001461375657613751610ed2613e37565b613630565b613751610ed2613dfc565b8161376b91613a88565b613776578338613739565b505050fd5b6161a7198401938411613798576136296136036135de8596610cf0565b634e487b7160e01b83526011600452602483fd5b610f76906137bc87519182613a88565b602181527f446174612052657472696576652043616c6c6261636b207375636365737366756020820152601b60fa1b87820152614457565b93613803816135bf9596613a88565b9392613571565b8680fd5b503461018f578060031936011261018f576138276143d3565b604051476001600160801b03168152602090f35b503461018f578060031936011261018f57602060025460801c604051908152f35b503461018f578060031936011261018f57602060015460801c604051908152f35b503461018f57602036600319011261018f57613897613916565b61389f6143d3565b6001600160801b03164781116138d257815482918291829182916001600160a01b031682821561291c57f1156129105780f35b606460405162461bcd60e51b815260206004820152602060248201527f496e73756666696369656e742062616c616e636520746f2077697468647261776044820152fd5b600435906001600160801b038216820361392c57565b600080fd5b602435906001600160801b038216820361392c57565b35906001600160801b038216820361392c57565b602060031982011261392c57600435906001600160401b03821161392c57606090829003600319011261392c5760040190565b6008111561399857565b634e487b7160e01b600052602160045260246000fd5b90600182811c921680156139de575b60208310146139c857565b634e487b7160e01b600052602260045260246000fd5b91607f16916139bd565b61018081019081106001600160401b03821117613a0457604052565b634e487b7160e01b600052604160045260246000fd5b606081019081106001600160401b03821117613a0457604052565b61014081019081106001600160401b03821117613a0457604052565b61010081019081106001600160401b03821117613a0457604052565b608081019081106001600160401b03821117613a0457604052565b90601f801991011681019081106001600160401b03821117613a0457604052565b9060405191826000825492613abd846139ae565b8084529360018116908115613b2b5750600114613ae4575b50613ae292500383613a88565b565b90506000929192526020600020906000915b818310613b0f575050906020613ae29282010138613ad5565b6020919350806001915483858901015201910190918492613af6565b905060209250613ae294915060ff191682840152151560051b82010138613ad5565b6001600160401b038111613a045760051b60200190565b908154613b7081613b4d565b92613b7e6040519485613a88565b818452602084019060005260206000206000915b838310613b9f5750505050565b600160208192613bae85613aa9565b815201920192019190613b92565b919082519283825260005b848110613be8575050826000602080949584010152601f8019910116010190565b80602080928401015182828601015201613bc7565b9080602083519182815201916020808360051b8301019401926000915b838310613c2957505050505090565b9091929394602080613c47600193601f198682030187528951613bbc565b97019301930191939290613c1a565b6003111561399857565b90604051613c6d81613a6d565b8092805460ff8116613c7e81613c56565b835260ff8160081c169060028210156139985760609260ff600192613cba94602088015260101c16613caf81613c56565b604086015201613aa9565b910152565b9060028210156139985752565b9060806060613d17938051613ce081613c56565b8452613cf460208201516020860190613cbf565b6040810151613d0281613c56565b60408501520151918160608201520190613bbc565b90565b6024356001600160801b038116810361392c5790565b356001600160801b038116810361392c5790565b9035601e198236030181121561392c5701602081359101916001600160401b03821161392c57813603831361392c57565b908060209392818452848401376000828201840152601f01601f1916010190565b9190820391821161092657565b8181029291811591840414171561092657565b60405190613dc5606083613a88565b6022825261095960f21b6040837f5472616e7366657272696e672025642020666f7220726571756573742069642060208201520152565b60405190613e0b604083613a88565b601b82527f5061796d656e742043616c6c6261636b207375636365737366756c00000000006020830152565b60405190613e46604083613a88565b60198252784572726f7220696e205061796d656e742043616c6c6261636b60381b6020830152565b9190820180921161092657565b15613e8257565b60405162461bcd60e51b815260206004820152602960248201527f496e73756666696369656e742066756e647320746f206578656375746520746860448201526819481c995c5d595cdd60ba1b6064820152608490fd5b3590811515820361392c57565b81601f8201121561392c578035906001600160401b038211613a045760405192613f1a601f8401601f191660200185613a88565b8284526020838301011161392c57816000926020809301838601378301015290565b9080601f8301121561392c578135613f5381613b4d565b92613f616040519485613a88565b81845260208085019260051b8201019183831161392c5760208201905b838210613f8d57505050505090565b81356001600160401b03811161392c57602091613faf87848094880101613ee6565b815201910190613f7e565b35906001600160401b03198216820361392c57565b818110613fda575050565b60008155600101613fcf565b613ff081546139ae565b9081613ffa575050565b81601f6000931160011461400c575055565b8183526020832061402891601f0160051c810190600101613fcf565b8082528160208120915555565b8054906000815581614045575050565b6000526020600020908101905b81811061405d575050565b80614069600192613fe6565b01614052565b90600160401b8111613a045781549181815582821061408d57505050565b600052602060002091820191015b8181106140a6575050565b806140b2600192613fe6565b0161409b565b919063ffffffff9060018060c01b039060201b169116176001600160401b0360c01b825416179055565b156140e957565b60405162461bcd60e51b815260206004820152601e60248201527f46756e64206d69736d61746368207769746820746865207265717565737400006044820152606490fd5b9061413881613c56565b60ff80198354169116179055565b1561414d57565b60405162461bcd60e51b815260206004820152601760248201527613dc195c985d1a5bdb881b9bdd081cdd5c1c1bdc9d1959604a1b6044820152606490fd5b6040519061419b604083613a88565b601b82527f616363657074616e63655f63616c6c6261636b5f6761733a20256400000000006020830152565b604051906141d6604083613a88565b601b82527f7375626d697373696f6e5f63616c6c6261636b5f6761733a20256400000000006020830152565b906060820191600435600881101561392c5761421d8161398e565b81526024356001600160801b0381169081900361392c5760208201526044356001600160801b038116919082900361392c5760400152565b60405190614264606083613a88565b60218252601960fa1b6040837f5472616e7366657272696e6720256420666f722072657175657374206964202560208201520152565b90602082528035600881101561392c576142b38161398e565b602083015260018060801b036142cb60208301613947565b1660408301526040810135607e198236030181121561392c5701906060808201528135600381101561392c5761430081613c56565b60808201526020820135600281101561392c576143219060a0830190613cbf565b604082013591600383101561392c576143536101009184614344613d1796613c56565b60c08501526060810190613d44565b919092608060e08201520191613d75565b919060808382031261392c576040519061437d82613a6d565b81938035600381101561392c5783526020810135600281101561392c5760208401526040810135600381101561392c5760408401526060810135916001600160401b03831161392c57606092613cba9201613ee6565b6000546001600160a01b031633036143e757565b63118cdaa760e01b6000523360045260246000fd5b61442c614440600093928493604051938492632d839cb360e21b6020850152604060248501526064840190613bbc565b90604483015203601f198101835282613a88565b6020815191016a636f6e736f6c652e6c6f675afa50565b6000614485614440829360405192839163104c13eb60e21b6020840152602060248401526044830190613bbc565b03601f198101835282613a88565b6144406144c49160009493859460405194859363ca47c4eb60e01b6020860152606060248601526084850190613bbc565b916044840152606483015203601f198101835282613a88565b6001600160801b039081169081101561450d576001016001600160801b038111610926576001600160801b031690565b60405162461bcd60e51b815260206004820152601360248201527252657175657374204944206f766572666c6f7760681b6044820152606490fdfe9031320abe7749aaa1d181db68f6b6a1393056468138c858403c69ba0826f45da2646970667358221220cc2844fd10da20fdc9ce61996b6bac12c72f4f58498dbb6499373f402d74ea4664736f6c634300081c0033",
  "linkReferences": {},
  "deployedLinkReferences": {}
}