{
  "_format": "hh-sol-artifact-1",
  "contractName": "OpenVectorCOFHEExecutor",
  "sourceName": "contracts/openvector.sol",
  "abi": [
    {
      "inputs": [],
      "stateMutability": "nonpayable",
      "type": "constructor"
    },
    {
      "inputs": [
        {
          "internalType": "address",
          "name": "owner",
          "type": "address"
        }
      ],
      "name": "OwnableInvalidOwner",
      "type": "error"
    },
    {
      "inputs": [
        {
          "internalType": "address",
          "name": "account",
          "type": "address"
        }
      ],
      "name": "OwnableUnauthorizedAccount",
      "type": "error"
    },
    {
      "anonymous": false,
      "inputs": [
        {
          "indexed": false,
          "internalType": "CRTT.RequestID",
          "name": "request_id",
          "type": "uint128"
        },
        {
          "indexed": false,
          "internalType": "enum CRTT.RequestType",
          "name": "request_type",
          "type": "uint8"
        }
      ],
      "name": "NewRequest",
      "type": "event"
    },
    {
      "anonymous": false,
      "inputs": [
        {
          "indexed": true,
          "internalType": "address",
          "name": "previousOwner",
          "type": "address"
        },
        {
          "indexed": true,
          "internalType": "address",
          "name": "newOwner",
          "type": "address"
        }
      ],
      "name": "OwnershipTransferred",
      "type": "event"
    },
    {
      "inputs": [],
      "name": "confidential_coin_request_cost",
      "outputs": [
        {
          "internalType": "uint256",
          "name": "",
          "type": "uint256"
        }
      ],
      "stateMutability": "view",
      "type": "function"
    },
    {
      "inputs": [],
      "name": "data_store_cost",
      "outputs": [
        {
          "internalType": "uint256",
          "name": "",
          "type": "uint256"
        }
      ],
      "stateMutability": "view",
      "type": "function"
    },
    {
      "inputs": [],
      "name": "decryption_cost",
      "outputs": [
        {
          "internalType": "uint256",
          "name": "",
          "type": "uint256"
        }
      ],
      "stateMutability": "view",
      "type": "function"
    },
    {
      "inputs": [
        {
          "components": [
            {
              "internalType": "bool",
              "name": "is_mint_request",
              "type": "bool"
            },
            {
              "internalType": "CRTT.EUint32",
              "name": "sender_balance",
              "type": "uint128"
            },
            {
              "internalType": "CRTT.EUint32",
              "name": "receiver_balance",
              "type": "uint128"
            },
            {
              "internalType": "bytes",
              "name": "transfer_amount",
              "type": "bytes"
            },
            {
              "internalType": "uint256",
              "name": "callback_gas",
              "type": "uint256"
            },
            {
              "internalType": "uint256",
              "name": "payment_callback_gas",
              "type": "uint256"
            },
            {
              "internalType": "function (struct CRTT.ConfidentialCoinResponse) payable external",
              "name": "callback",
              "type": "function"
            },
            {
              "internalType": "function (CRTT.RequestID) payable external",
              "name": "payment_callback",
              "type": "function"
            }
          ],
          "internalType": "struct CRTT.ConfidentialCoinRequest",
          "name": "request",
          "type": "tuple"
        }
      ],
      "name": "executeRequest",
      "outputs": [
        {
          "internalType": "CRTT.RequestID",
          "name": "",
          "type": "uint128"
        }
      ],
      "stateMutability": "payable",
      "type": "function"
    },
    {
      "inputs": [
        {
          "components": [
            {
              "components": [
                {
                  "internalType": "enum CRTT.DataType",
                  "name": "data_type",
                  "type": "uint8"
                },
                {
                  "internalType": "enum CRTT.OperandEncryptionScheme",
                  "name": "encryption_scheme",
                  "type": "uint8"
                },
                {
                  "internalType": "bytes",
                  "name": "data",
                  "type": "bytes"
                }
              ],
              "internalType": "struct CRTT.ValueOperand",
              "name": "operand",
              "type": "tuple"
            },
            {
              "internalType": "uint256",
              "name": "payment",
              "type": "uint256"
            },
            {
              "internalType": "uint256",
              "name": "acceptance_callback_gas",
              "type": "uint256"
            },
            {
              "internalType": "uint256",
              "name": "submission_callback_gas",
              "type": "uint256"
            },
            {
              "internalType": "uint256",
              "name": "payment_callback_gas",
              "type": "uint256"
            },
            {
              "internalType": "function (struct CRTT.DataStoreResponse) payable external",
              "name": "acceptance_callback",
              "type": "function"
            },
            {
              "internalType": "function (struct CRTT.DataStoreResponse) payable external",
              "name": "submission_callback",
              "type": "function"
            },
            {
              "internalType": "function (CRTT.RequestID) payable external",
              "name": "payment_callback",
              "type": "function"
            }
          ],
          "internalType": "struct CRTT.DataStoreRequest",
          "name": "request",
          "type": "tuple"
        }
      ],
      "name": "executeRequest",
      "outputs": [
        {
          "internalType": "CRTT.RequestID",
          "name": "",
          "type": "uint128"
        }
      ],
      "stateMutability": "payable",
      "type": "function"
    },
    {
      "inputs": [
        {
          "components": [
            {
              "internalType": "enum CRTT.DataRequestedType",
              "name": "requested_type",
              "type": "uint8"
            },
            {
              "internalType": "CRTT.DataKey",
              "name": "key",
              "type": "uint128"
            },
            {
              "internalType": "uint256",
              "name": "payment",
              "type": "uint256"
            },
            {
              "internalType": "uint256",
              "name": "callback_gas",
              "type": "uint256"
            },
            {
              "internalType": "uint256",
              "name": "payment_callback_gas",
              "type": "uint256"
            },
            {
              "internalType": "function (struct CRTT.DataRetrievalResponse) payable external",
              "name": "callback",
              "type": "function"
            },
            {
              "internalType": "function (CRTT.RequestID) payable external",
              "name": "payment_callback",
              "type": "function"
            },
            {
              "internalType": "CRTT.DataKey",
              "name": "reencryption_key",
              "type": "uint128"
            }
          ],
          "internalType": "struct CRTT.DataRetrievalRequest",
          "name": "request",
          "type": "tuple"
        }
      ],
      "name": "executeRequest",
      "outputs": [
        {
          "internalType": "CRTT.RequestID",
          "name": "",
          "type": "uint128"
        }
      ],
      "stateMutability": "payable",
      "type": "function"
    },
    {
      "inputs": [
        {
          "components": [
            {
              "internalType": "enum CRTT.Operation",
              "name": "operation",
              "type": "uint8"
            },
            {
              "components": [
                {
                  "internalType": "enum CRTT.DataType",
                  "name": "data_type",
                  "type": "uint8"
                },
                {
                  "internalType": "enum CRTT.OperandLocation",
                  "name": "location",
                  "type": "uint8"
                },
                {
                  "internalType": "enum CRTT.OperandEncryptionScheme",
                  "name": "encryption_scheme",
                  "type": "uint8"
                },
                {
                  "internalType": "bytes",
                  "name": "data",
                  "type": "bytes"
                }
              ],
              "internalType": "struct CRTT.Operand",
              "name": "op1",
              "type": "tuple"
            },
            {
              "components": [
                {
                  "internalType": "enum CRTT.DataType",
                  "name": "data_type",
                  "type": "uint8"
                },
                {
                  "internalType": "enum CRTT.OperandLocation",
                  "name": "location",
                  "type": "uint8"
                },
                {
                  "internalType": "enum CRTT.OperandEncryptionScheme",
                  "name": "encryption_scheme",
                  "type": "uint8"
                },
                {
                  "internalType": "bytes",
                  "name": "data",
                  "type": "bytes"
                }
              ],
              "internalType": "struct CRTT.Operand",
              "name": "op2",
              "type": "tuple"
            },
            {
              "internalType": "uint256",
              "name": "payment",
              "type": "uint256"
            },
            {
              "internalType": "uint256",
              "name": "acceptance_callback_gas",
              "type": "uint256"
            },
            {
              "internalType": "uint256",
              "name": "submission_callback_gas",
              "type": "uint256"
            },
            {
              "internalType": "uint256",
              "name": "payment_callback_gas",
              "type": "uint256"
            },
            {
              "internalType": "function (struct CRTT.Response) payable external",
              "name": "acceptance_callback",
              "type": "function"
            },
            {
              "internalType": "function (struct CRTT.Response) payable external",
              "name": "submission_callback",
              "type": "function"
            },
            {
              "internalType": "function (CRTT.RequestID) payable external",
              "name": "payment_callback",
              "type": "function"
            }
          ],
          "internalType": "struct CRTT.Request",
          "name": "request",
          "type": "tuple"
        }
      ],
      "name": "executeRequest",
      "outputs": [
        {
          "internalType": "CRTT.RequestID",
          "name": "",
          "type": "uint128"
        }
      ],
      "stateMutability": "payable",
      "type": "function"
    },
    {
      "inputs": [],
      "name": "getBalance",
      "outputs": [
        {
          "internalType": "uint128",
          "name": "",
          "type": "uint128"
        }
      ],
      "stateMutability": "view",
      "type": "function"
    },
    {
      "inputs": [],
      "name": "last_confidential_coin_request_id",
      "outputs": [
        {
          "internalType": "CRTT.RequestID",
          "name": "",
          "type": "uint128"
        }
      ],
      "stateMutability": "view",
      "type": "function"
    },
    {
      "inputs": [],
      "name": "last_data_request_id",
      "outputs": [
        {
          "internalType": "CRTT.RequestID",
          "name": "",
          "type": "uint128"
        }
      ],
      "stateMutability": "view",
      "type": "function"
    },
    {
      "inputs": [],
      "name": "last_data_store_request_id",
      "outputs": [
        {
          "internalType": "CRTT.RequestID",
          "name": "",
          "type": "uint128"
        }
      ],
      "stateMutability": "view",
      "type": "function"
    },
    {
      "inputs": [],
      "name": "last_request_id",
      "outputs": [
        {
          "internalType": "CRTT.RequestID",
          "name": "",
          "type": "uint128"
        }
      ],
      "stateMutability": "view",
      "type": "function"
    },
    {
      "inputs": [
        {
          "internalType": "enum CRTT.Operation",
          "name": "",
          "type": "uint8"
        }
      ],
      "name": "operation_cost",
      "outputs": [
        {
          "internalType": "uint256",
          "name": "",
          "type": "uint256"
        }
      ],
      "stateMutability": "view",
      "type": "function"
    },
    {
      "inputs": [],
      "name": "owner",
      "outputs": [
        {
          "internalType": "address",
          "name": "",
          "type": "address"
        }
      ],
      "stateMutability": "view",
      "type": "function"
    },
    {
      "inputs": [
        {
          "internalType": "CRTT.RequestID",
          "name": "",
          "type": "uint128"
        }
      ],
      "name": "pending_confidential_coin_requests",
      "outputs": [
        {
          "components": [
            {
              "internalType": "bool",
              "name": "is_mint_request",
              "type": "bool"
            },
            {
              "internalType": "CRTT.EUint32",
              "name": "sender_balance",
              "type": "uint128"
            },
            {
              "internalType": "CRTT.EUint32",
              "name": "receiver_balance",
              "type": "uint128"
            },
            {
              "internalType": "bytes",
              "name": "transfer_amount",
              "type": "bytes"
            },
            {
              "internalType": "uint256",
              "name": "callback_gas",
              "type": "uint256"
            },
            {
              "internalType": "uint256",
              "name": "payment_callback_gas",
              "type": "uint256"
            },
            {
              "internalType": "function (struct CRTT.ConfidentialCoinResponse) payable external",
              "name": "callback",
              "type": "function"
            },
            {
              "internalType": "function (CRTT.RequestID) payable external",
              "name": "payment_callback",
              "type": "function"
            }
          ],
          "internalType": "struct CRTT.ConfidentialCoinRequest",
          "name": "request",
          "type": "tuple"
        },
        {
          "internalType": "uint256",
          "name": "payment",
          "type": "uint256"
        },
        {
          "internalType": "uint256",
          "name": "op_cost",
          "type": "uint256"
        }
      ],
      "stateMutability": "view",
      "type": "function"
    },
    {
      "inputs": [
        {
          "internalType": "CRTT.RequestID",
          "name": "",
          "type": "uint128"
        }
      ],
      "name": "pending_data_requests",
      "outputs": [
        {
          "components": [
            {
              "internalType": "enum CRTT.DataRequestedType",
              "name": "requested_type",
              "type": "uint8"
            },
            {
              "internalType": "CRTT.DataKey",
              "name": "key",
              "type": "uint128"
            },
            {
              "internalType": "uint256",
              "name": "payment",
              "type": "uint256"
            },
            {
              "internalType": "uint256",
              "name": "callback_gas",
              "type": "uint256"
            },
            {
              "internalType": "uint256",
              "name": "payment_callback_gas",
              "type": "uint256"
            },
            {
              "internalType": "function (struct CRTT.DataRetrievalResponse) payable external",
              "name": "callback",
              "type": "function"
            },
            {
              "internalType": "function (CRTT.RequestID) payable external",
              "name": "payment_callback",
              "type": "function"
            },
            {
              "internalType": "CRTT.DataKey",
              "name": "reencryption_key",
              "type": "uint128"
            }
          ],
          "internalType": "struct CRTT.DataRetrievalRequest",
          "name": "request",
          "type": "tuple"
        },
        {
          "internalType": "uint256",
          "name": "payment",
          "type": "uint256"
        },
        {
          "internalType": "uint256",
          "name": "op_cost",
          "type": "uint256"
        }
      ],
      "stateMutability": "view",
      "type": "function"
    },
    {
      "inputs": [
        {
          "internalType": "CRTT.RequestID",
          "name": "",
          "type": "uint128"
        }
      ],
      "name": "pending_data_store_requests",
      "outputs": [
        {
          "components": [
            {
              "components": [
                {
                  "internalType": "enum CRTT.DataType",
                  "name": "data_type",
                  "type": "uint8"
                },
                {
                  "internalType": "enum CRTT.OperandEncryptionScheme",
                  "name": "encryption_scheme",
                  "type": "uint8"
                },
                {
                  "internalType": "bytes",
                  "name": "data",
                  "type": "bytes"
                }
              ],
              "internalType": "struct CRTT.ValueOperand",
              "name": "operand",
              "type": "tuple"
            },
            {
              "internalType": "uint256",
              "name": "payment",
              "type": "uint256"
            },
            {
              "internalType": "uint256",
              "name": "acceptance_callback_gas",
              "type": "uint256"
            },
            {
              "internalType": "uint256",
              "name": "submission_callback_gas",
              "type": "uint256"
            },
            {
              "internalType": "uint256",
              "name": "payment_callback_gas",
              "type": "uint256"
            },
            {
              "internalType": "function (struct CRTT.DataStoreResponse) payable external",
              "name": "acceptance_callback",
              "type": "function"
            },
            {
              "internalType": "function (struct CRTT.DataStoreResponse) payable external",
              "name": "submission_callback",
              "type": "function"
            },
            {
              "internalType": "function (CRTT.RequestID) payable external",
              "name": "payment_callback",
              "type": "function"
            }
          ],
          "internalType": "struct CRTT.DataStoreRequest",
          "name": "request",
          "type": "tuple"
        },
        {
          "internalType": "uint256",
          "name": "payment",
          "type": "uint256"
        },
        {
          "internalType": "uint256",
          "name": "op_cost",
          "type": "uint256"
        }
      ],
      "stateMutability": "view",
      "type": "function"
    },
    {
      "inputs": [
        {
          "internalType": "CRTT.RequestID",
          "name": "",
          "type": "uint128"
        }
      ],
      "name": "pending_requests",
      "outputs": [
        {
          "components": [
            {
              "internalType": "enum CRTT.Operation",
              "name": "operation",
              "type": "uint8"
            },
            {
              "components": [
                {
                  "internalType": "enum CRTT.DataType",
                  "name": "data_type",
                  "type": "uint8"
                },
                {
                  "internalType": "enum CRTT.OperandLocation",
                  "name": "location",
                  "type": "uint8"
                },
                {
                  "internalType": "enum CRTT.OperandEncryptionScheme",
                  "name": "encryption_scheme",
                  "type": "uint8"
                },
                {
                  "internalType": "bytes",
                  "name": "data",
                  "type": "bytes"
                }
              ],
              "internalType": "struct CRTT.Operand",
              "name": "op1",
              "type": "tuple"
            },
            {
              "components": [
                {
                  "internalType": "enum CRTT.DataType",
                  "name": "data_type",
                  "type": "uint8"
                },
                {
                  "internalType": "enum CRTT.OperandLocation",
                  "name": "location",
                  "type": "uint8"
                },
                {
                  "internalType": "enum CRTT.OperandEncryptionScheme",
                  "name": "encryption_scheme",
                  "type": "uint8"
                },
                {
                  "internalType": "bytes",
                  "name": "data",
                  "type": "bytes"
                }
              ],
              "internalType": "struct CRTT.Operand",
              "name": "op2",
              "type": "tuple"
            },
            {
              "internalType": "uint256",
              "name": "payment",
              "type": "uint256"
            },
            {
              "internalType": "uint256",
              "name": "acceptance_callback_gas",
              "type": "uint256"
            },
            {
              "internalType": "uint256",
              "name": "submission_callback_gas",
              "type": "uint256"
            },
            {
              "internalType": "uint256",
              "name": "payment_callback_gas",
              "type": "uint256"
            },
            {
              "internalType": "function (struct CRTT.Response) payable external",
              "name": "acceptance_callback",
              "type": "function"
            },
            {
              "internalType": "function (struct CRTT.Response) payable external",
              "name": "submission_callback",
              "type": "function"
            },
            {
              "internalType": "function (CRTT.RequestID) payable external",
              "name": "payment_callback",
              "type": "function"
            }
          ],
          "internalType": "struct CRTT.Request",
          "name": "request",
          "type": "tuple"
        },
        {
          "internalType": "uint256",
          "name": "payment",
          "type": "uint256"
        },
        {
          "internalType": "uint256",
          "name": "op_cost",
          "type": "uint256"
        }
      ],
      "stateMutability": "view",
      "type": "function"
    },
    {
      "inputs": [],
      "name": "renounceOwnership",
      "outputs": [],
      "stateMutability": "nonpayable",
      "type": "function"
    },
    {
      "inputs": [
        {
          "internalType": "uint256",
          "name": "price",
          "type": "uint256"
        }
      ],
      "name": "setConfidentialCoinRequestPrice",
      "outputs": [],
      "stateMutability": "nonpayable",
      "type": "function"
    },
    {
      "inputs": [
        {
          "internalType": "uint256",
          "name": "price",
          "type": "uint256"
        }
      ],
      "name": "setDataStorePrice",
      "outputs": [],
      "stateMutability": "nonpayable",
      "type": "function"
    },
    {
      "inputs": [
        {
          "internalType": "uint256",
          "name": "price",
          "type": "uint256"
        }
      ],
      "name": "setDecryptionPrice",
      "outputs": [],
      "stateMutability": "nonpayable",
      "type": "function"
    },
    {
      "inputs": [
        {
          "internalType": "enum CRTT.Operation",
          "name": "operation",
          "type": "uint8"
        },
        {
          "internalType": "uint256",
          "name": "price",
          "type": "uint256"
        }
      ],
      "name": "setPrice",
      "outputs": [],
      "stateMutability": "nonpayable",
      "type": "function"
    },
    {
      "inputs": [
        {
          "components": [
            {
              "internalType": "enum CRTT.ResponseStatus",
              "name": "status",
              "type": "uint8"
            },
            {
              "internalType": "CRTT.RequestID",
              "name": "request_id",
              "type": "uint128"
            },
            {
              "internalType": "bool",
              "name": "success",
              "type": "bool"
            },
            {
              "internalType": "CRTT.EUint32",
              "name": "sender_balance",
              "type": "uint128"
            },
            {
              "internalType": "CRTT.EUint32",
              "name": "receiver_balance",
              "type": "uint128"
            }
          ],
          "internalType": "struct CRTT.ConfidentialCoinResponse",
          "name": "response",
          "type": "tuple"
        }
      ],
      "name": "submitConfidentialCoinResponse",
      "outputs": [],
      "stateMutability": "nonpayable",
      "type": "function"
    },
    {
      "inputs": [
        {
          "components": [
            {
              "internalType": "enum CRTT.ResponseStatus",
              "name": "status",
              "type": "uint8"
            },
            {
              "internalType": "CRTT.RequestID",
              "name": "request_id",
              "type": "uint128"
            },
            {
              "components": [
                {
                  "internalType": "enum CRTT.DataType",
                  "name": "data_type",
                  "type": "uint8"
                },
                {
                  "internalType": "enum CRTT.OperandEncryptionScheme",
                  "name": "encryption_scheme",
                  "type": "uint8"
                },
                {
                  "internalType": "bytes",
                  "name": "data",
                  "type": "bytes"
                }
              ],
              "internalType": "struct CRTT.ValueOperand",
              "name": "result",
              "type": "tuple"
            }
          ],
          "internalType": "struct CRTT.DataRetrievalResponse",
          "name": "response",
          "type": "tuple"
        }
      ],
      "name": "submitDataRetrievalResponse",
      "outputs": [],
      "stateMutability": "nonpayable",
      "type": "function"
    },
    {
      "inputs": [
        {
          "components": [
            {
              "internalType": "enum CRTT.ResponseStatus",
              "name": "status",
              "type": "uint8"
            },
            {
              "internalType": "CRTT.RequestID",
              "name": "request_id",
              "type": "uint128"
            },
            {
              "internalType": "CRTT.DataKey",
              "name": "result",
              "type": "uint128"
            }
          ],
          "internalType": "struct CRTT.DataStoreResponse",
          "name": "response",
          "type": "tuple"
        }
      ],
      "name": "submitDataStoreResponse",
      "outputs": [],
      "stateMutability": "nonpayable",
      "type": "function"
    },
    {
      "inputs": [
        {
          "components": [
            {
              "internalType": "enum CRTT.ResponseStatus",
              "name": "status",
              "type": "uint8"
            },
            {
              "internalType": "CRTT.RequestID",
              "name": "request_id",
              "type": "uint128"
            },
            {
              "components": [
                {
                  "internalType": "enum CRTT.DataType",
                  "name": "data_type",
                  "type": "uint8"
                },
                {
                  "internalType": "enum CRTT.OperandLocation",
                  "name": "location",
                  "type": "uint8"
                },
                {
                  "internalType": "enum CRTT.OperandEncryptionScheme",
                  "name": "encryption_scheme",
                  "type": "uint8"
                },
                {
                  "internalType": "bytes",
                  "name": "data",
                  "type": "bytes"
                }
              ],
              "internalType": "struct CRTT.Operand",
              "name": "result",
              "type": "tuple"
            }
          ],
          "internalType": "struct CRTT.Response",
          "name": "response",
          "type": "tuple"
        }
      ],
      "name": "submitResponse",
      "outputs": [],
      "stateMutability": "nonpayable",
      "type": "function"
    },
    {
      "inputs": [
        {
          "internalType": "address",
          "name": "newOwner",
          "type": "address"
        }
      ],
      "name": "transferOwnership",
      "outputs": [],
      "stateMutability": "nonpayable",
      "type": "function"
    },
    {
      "inputs": [
        {
          "internalType": "uint128",
          "name": "amount",
          "type": "uint128"
        }
      ],
      "name": "withdraw",
      "outputs": [],
      "stateMutability": "nonpayable",
      "type": "function"
    },
    {
      "inputs": [],
      "name": "withdraw",
      "outputs": [],
      "stateMutability": "nonpayable",
      "type": "function"
    }
  ],
  "bytecode": "0x60808060405234608e57331560785760008054336001600160a01b0319821681178355916001600160a01b03909116907f8be0079c531659141344cd1fd0a4f28419497f9722a3daafe3b4186f6b6457e09080a360006001556000600255600060085560006009556000600a55613fbb90816100948239f35b631e4fbdf760e01b600052600060045260246000fd5b600080fdfe6080604052600436101561001257600080fd5b6000803560e01c806302387a7b1461345857806302acabff1461343757806306373eea1461341657806312065fe0146133e95780631a2bb4d214612f4557806323c005be14612f0857806328fe1e9c14612d9757806332168a2014612d6e5780633555dd05146128cc5780633ccfd60b1461287d5780633e7aaa681461285a57806341823967146126985780634e362ea0146121b357806367bc886814611e395780636a00670b14611df8578063715018a614611d9e578063795a6d031461194d57806380370d07146117e85780638da5cb5b146117c15780638ec3557914611185578063920402ab146111675780639c5ad53014610b10578063a2d5f6ab1461093a578063bbbbd930146102a2578063c29d6ba01461027f578063c608106d14610261578063e377138f14610243578063f2fde38b146101b5578063f5dca5d3146101925763ff6d55b01461016757600080fd5b3461018f578060031936011261018f576001546040516001600160801b039091168152602090f35b80fd5b503461018f57602036600319011261018f576101ac613df0565b600435600a5580f35b503461018f57602036600319011261018f576004356001600160a01b0381169081900361023f576101e4613df0565b801561022b5781546001600160a01b03198116821783556001600160a01b03167f8be0079c531659141344cd1fd0a4f28419497f9722a3daafe3b4186f6b6457e08380a380f35b631e4fbdf760e01b82526004829052602482fd5b5080fd5b503461018f578060031936011261018f576020600a54604051908152f35b503461018f578060031936011261018f576020600854604051908152f35b503461018f57602036600319011261018f57610299613df0565b60043560085580f35b50602036600319011261018f57600435906001600160401b03821161018f57610140600319833603011261018f57604061030481516102e18382613647565b6011815270115e1958dd5d1a5b99c814995c5d595cdd607a1b6020820152613e74565b826004013560088110156109365761031b81613569565b61034a81835161032b8582613647565b600d81526c13dc195c985d1a5bdb8e880959609a1b6020820152613e19565b61035381613569565b8083526007602052818320549361036b851515613b14565b60648101359161037c833414613ab0565b65943f651930008601918287116109205760848101359261039d8482613999565b6103ac60a48401358092613999565b916103c76103bf60c48601358095613999565b3410156139a6565b61040088516103d68a82613647565b601881527714995c5d595cdd081c995c5d5a5c995b595b9d1cc81b595d60421b6020820152613e74565b6001549981906001600160801b03610419818e16613efa565b166001600160801b03199c909c168c1760015511610920578261043b91613999565b94875196610448886135f5565b88519561045487613610565b865260248501356001600160401b03811161091c576104799060043691880101613d81565b602087015260448501356001600160401b03811161091c57916104ee9593916104ac610124969460043691880101613d81565b8b8901526060880152608087015260a086015260c08501526104d060e48201613a5a565b60e08501526104e26101048201613a5a565b61010085015201613a5a565b6101208201528252602082019434865283830191825284526003602052828420915194855161051c81613569565b61052581613569565b60ff801985541691161783556001830160208701519061054f825161054981613781565b82613afc565b6020820151600281101561087557815461ff0062ff00008986015161057381613781565b61057c81613781565b60101b169260081b169062ffff001916171790556060600285019101518051906001600160401b038211610861576105b48354613589565b601f81116108ec575b50602090601f8311600114610889576105ee92918991836107ae575b50508160011b916000199060031b1c19161790565b90555b60038301958481015196610609885161054981613781565b6020880151600281101561087557815461ff0062ff0000898c015161062d81613781565b61063681613781565b60101b169260081b169062ffff001916171790556060600485019701519687516001600160401b038111610861576020986106718354613589565b601f8111610828575b50899089601f84116001146107b9578361012094600d9998979461073997946106b794926107ae5750508160011b916000199060031b1c19161790565b90555b606081015160058801556080810151600688015560a0810151600788015560c0810151600888015561070160e082015163ffffffff8160601c918b1c169060098a01613a86565b61072161010082015163ffffffff8160601c918b1c1690600a8a01613a86565b015180871c63ffffffff169060601c600b8701613a86565b51600c84015551910155600080516020613f668339815191528160018060801b03600154169381519085825286820152a16107a882825161077a8482613647565b601e81527f5265717565737420656d697474656420666f722072657175657374202564000086820152613e19565b51908152f35b0151905038806105d9565b50838a52818a209190601f1984168b5b818110610811575093600d9897969361073996936001938361012098106107f8575b505050811b0190556106ba565b015160001960f88460031b161c191690553880806107eb565b92938d6001819287860151815501950193016107c9565b61085190848b528b8b20601f850160051c8101918d8610610857575b601f0160051c0190613a6f565b3861067a565b9091508190610844565b634e487b7160e01b88526041600452602488fd5b634e487b7160e01b88526021600452602488fd5b8389528189209190601f1984168a5b8181106108d457509084600195949392106108bb575b505050811b0190556105f1565b015160001960f88460031b161c191690553880806108ae565b92936020600181928786015181550195019301610898565b61091690848a5260208a20601f850160051c8101916020861061085757601f0160051c0190613a6f565b386105bd565b8a80fd5b634e487b7160e01b600052601160045260246000fd5b8280fd5b503461018f57602036600319011261018f57610100906060906040906001600160801b036109666134f1565b16815260056020522060405161097b816135c3565b604051610987816135f5565b60ff835481811661099781613781565b835260081c166109a681613781565b60208201526109b760018401613668565b604082810191909152908252600283015460208301908152600384015483830190815260048501548685019081526005860154608086019081526006870154600160201b600160c01b03811663ffffffff9091161790941b60a08601908152929593919290916007850154600160201b600160c01b03811663ffffffff9091161760401b60c08701908152926008860154600160201b600160c01b03811663ffffffff9091161760401b60e0880190815294610ac36040600a60098a01549901549981519d8d8f9e928f938452519201528c610160825191610a9883613781565b015260208101516101808e610aac83613781565b0152015160606101a08d01526101c08c019061370c565b985160808b01525160a08a01525160c08901525160e0880152516001600160401b031990811661010088015290518116610120870152905116610140850152602084015260408301520390f35b503461018f57610b1f36613536565b610b27613df0565b5a8135600881101561116357610b3c81613569565b8381159283600014610f8e5760208501610bb56001600160801b03610b608361385b565b16604051610b6f606082613647565b602e81527f43616c6c696e672074686520616363657074616e63652063616c6c6261636b2060208201526d199bdc881c995c5d595cdd08095960921b6040820152613e19565b6001600160801b03610bc68261385b565b1683526003602052610bec633b9aca00600660408620015404610be7613b5a565b613e19565b6001600160801b03610bfd8261385b565b1683526003602090815260408420600901549081901c6001600160a01b03169163ffffffff909116906001600160801b0390610c389061385b565b1684526003602052633b9aca0060066040862001540491803b15610efc5784928392604051968793849260e01b835282610c758d60048301613cb7565b0393f19283610f75575b5050610cd49115600014610f3057610ccd604051610c9e604082613647565b601c81527f4572726f7220696e20416363657074616e63652043616c6c6261636b000000006020820152613e74565b5a906138c1565b6161a8811015610f005750610d26906020610cf1865b3a906138ce565b9401936001600160801b03610d058661385b565b1686526003602052610d1f600d6040882001918254613999565b9055613569565b15610d2f575080f35b6001600160801b03610d408261385b565b168252600360205260408220600c0154610d7b906001600160801b03610d658461385b565b1684526003602052600d604085200154906138c1565b80610dff575b506001600160801b0390610d949061385b565b168152600360205280600d60408220828155826001820155610db860028201613b95565b826003820155610dca60048201613b95565b82600582015582600682015582600782015582600882015582600982015582600a82015582600b82015582600c820155015580f35b610e226001600160801b03610e138461385b565b1682610e1d613c72565b613eb0565b6001600160801b03610e338361385b565b1683526003602090815260408420600b01549081901c6001600160a01b031691849163ffffffff166001600160801b03610e6c8661385b565b1683526003602052633b9aca0060086040852001540493610e8c8661385b565b91813b15610efc578493602492604051978895869460e01b855260018060801b03166004850152f19182610ee7575b5050610ed757610ed1610ecc613962565b613e74565b38610d81565b610ee2610ecc613927565b610ed1565b81610ef191613647565b610936578238610ebb565b8480fd5b6161a7198101908111610f1c57906020610cf1610d2693610cea565b634e487b7160e01b85526011600452602485fd5b610f70604051610f41604082613647565b601e81527f416363657074616e63652043616c6c6261636b207375636365737366756c00006020820152613e74565b610ccd565b81610f7f91613647565b610f8a578538610c7f565b8580fd5b60208501610ffb6001600160801b03610fa68361385b565b16604051610fb5606082613647565b602e81527f43616c6c696e6720746865207375626d697373696f6e2063616c6c6261636b2060208201526d199bdc881c995c5d595cdd08095960921b6040820152613e19565b6001600160801b0361100c8261385b565b168352600360205261102d633b9aca00600760408620015404610be7613be4565b6001600160801b0361103e8261385b565b1683526003602090815260408420600a01549081901c6001600160a01b03169163ffffffff909116906001600160801b03906110799061385b565b1684526003602052633b9aca0060076040862001540491803b15610efc5784928392604051968793849260e01b8352826110b68d60048301613cb7565b0393f1928361114e575b5050610cd4911560001461110e57610f706040516110df604082613647565b601c81527f4572726f7220696e205375626d697373696f6e2043616c6c6261636b000000006020820152613e74565b610f7060405161111f604082613647565b601e81527f5375626d697373696f6e2043616c6c6261636b207375636365737366756c00006020820152613e74565b8161115891613647565b610f8a5785386110c0565b8380fd5b503461018f578060031936011261018f576020600954604051908152f35b503461018f57606036600319011261018f5761119f613df0565b5a6004356008811015610936576111b581613569565b82811592836000146115ca576001600160801b036111d1613845565b166112366060916040516111e58482613647565b603981527f43616c6c696e672074686520616363657074616e63652063616c6c6261636b20602082015278199bdc8819185d18481cdd1bdc99481c995c5d595cdd080959603a1b6040820152613e19565b6001600160801b03611246613845565b1683526005602052611267633b9aca00600360408620015404610be7613b5a565b6001600160801b03611277613845565b1683526005602090815260408420600601549081901c6001600160a01b03169063ffffffff166001600160801b036112ad613845565b1685526005602052633b9aca0060036040872001540491803b15610f8a5785928392604051978893849260e01b8352826112e960048201613c1f565b0393f193846115b5575b5050611351921560001461156357610ccd906113126040519182613647565b602781527f4572726f7220696e20446174612053746f726520416363657074616e63652043602082015266616c6c6261636b60c81b6040820152613e74565b6161a881101561153557506113949061136a3a856138ce565b6001600160801b0361137a613845565b1685526005602052610d1f600a6040872001918254613999565b1561139c5780f35b6001600160801b036113ac613845565b168152600560205260408120600901546113e6906001600160801b036113d0613845565b1683526005602052600a604084200154906138c1565b80611450575b506001600160801b036113fd613845565b168152600560205280600a6040822082815561141b60018201613b95565b826002820155826003820155826004820155826005820155826006820155826007820155826008820155826009820155015580f35b6114636001600160801b03610e13613845565b6001600160801b03611473613845565b1682526005602090815260408320600801549081901c6001600160a01b031691839163ffffffff166001600160801b036114ab613845565b1683526005602052633b9aca00600560408520015404936114ca613845565b91813b15610efc578493602492604051978895869460e01b855260018060801b03166004850152f19182611520575b50506115105761150a610ecc613962565b386113ec565b61151b610ecc613927565b61150a565b8161152a91613647565b61023f5781386114f9565b6161a719810190811161154f579061136a61139492610cea565b634e487b7160e01b84526011600452602484fd5b610f70906115746040519182613647565b602981527f446174612053746f726520416363657074616e63652043616c6c6261636b20736020820152681d58d8d95cdcd99d5b60ba1b6040820152613e74565b816115bf91613647565b610f8a5785386112f3565b6001600160801b036115da613845565b1661163f6060916040516115ee8482613647565b603981527f43616c6c696e6720746865207375626d697373696f6e2063616c6c6261636b20602082015278199bdc8819185d18481cdd1bdc99481c995c5d595cdd080959603a1b6040820152613e19565b6001600160801b0361164f613845565b1683526005602052611670633b9aca00600460408620015404610be7613be4565b6001600160801b03611680613845565b1683526005602090815260408420600701549081901c6001600160a01b03169063ffffffff166001600160801b036116b6613845565b1685526005602052633b9aca0060046040872001540491803b15610f8a5785928392604051978893849260e01b8352826116f260048201613c1f565b0393f193846117ac575b5050611351921560001461175a57610f709061171b6040519182613647565b602781527f4572726f7220696e20446174612053746f7265205375626d697373696f6e2043602082015266616c6c6261636b60c81b6040820152613e74565b610f709061176b6040519182613647565b602981527f446174612053746f7265205375626d697373696f6e2043616c6c6261636b20736020820152681d58d8d95cdcd99d5b60ba1b6040820152613e74565b816117b691613647565b610f8a5785386116fc565b503461018f578060031936011261018f57546040516001600160a01b039091168152602090f35b503461018f57602036600319011261018f57610140906040906001600160801b036118116134f1565b16815260046020522060405190611827826135c3565b80549060ff821661183781613781565b835260089190911c6001600160801b031660208301908152600182015460408085019182526002840154606086019081526003850154608087019081526004860154600160201b600160c01b03811663ffffffff9091161790921b60a0870190815293949390916005850154600160201b600160c01b03811663ffffffff9091161760401b60c088019081529260018060801b036006870154169460e08901958652600860078801549701549760405199516118f281613781565b8a52516001600160801b0390811660208b0152905160408a0152905160608901529051608088015290516001600160401b031990811660a0880152915190911660c086015290511660e0840152610100830152610120820152f35b503461018f5760a036600319011261018f57611967613df0565b5a6001600160801b03611978613845565b16906119da60609260405161198d8582613647565b603581527f43616c6c696e67207468652063616c6c6261636b20666f7220636f6e666964656020820152741b9d1a585b0818dbda5b881c995c5d595cdd080959605a1b6040820152613e19565b6001600160801b036119ea613845565b1683526006602052611a0b633b9aca00600360408620015404610be7613b5a565b6001600160801b03611a1b613845565b16835260066020908152604084206005015463ffffffff811693918591901c6001600160a01b03166001600160801b03611a53613845565b1682526006602052633b9aca0060036040842001540490803b15610936576040519560e01b8652600435600881101561116357611a8f81613569565b60048701526001600160801b03611aa461350c565b1660248701526044358015158091036111635760448701526064356001600160801b038116908190036111635760648701526084356001600160801b038116919082900361116357868460a492819583956084850152f19384611d89575b5050611b5b9215600014611d3c57610ccd90611b216040519182613647565b602281527f4572726f7220696e20436f6e666964656e7469616c436f696e2043616c6c6261602082015261636b60f01b6040820152613e74565b6161a8811015611d0f5750611bc2611b733a836138ce565b6001600160801b03611b83613845565b16835260066020526040832060070154611bbd906001600160801b03611ba7613845565b16855260066020526008604086200154906138c1565b6138c1565b80611c20575b506001600160801b03611bd9613845565b168152600660205280600860408220828155826001820155611bfd60028201613b95565b826003820155826004820155826005820155826006820155826007820155015580f35b611c3d6001600160801b03611c33613845565b1682610e1d6138e1565b6001600160801b03611c4d613845565b1682526006602081815260408420909101549081901c6001600160a01b031691839163ffffffff166001600160801b03611c85613845565b1683526006602052633b9aca0060046040852001540493611ca4613845565b91813b15610efc578493602492604051978895869460e01b855260018060801b03166004850152f19182611cfa575b5050611cea57611ce4610ecc613962565b38611bc8565b611cf5610ecc613927565b611ce4565b81611d0491613647565b61023f578138611cd3565b6161a7198101908111611d2857611b73611bc291610cea565b634e487b7160e01b82526011600452602482fd5b610f7090611d4d6040519182613647565b602481527f436f6e666964656e7469616c436f696e2043616c6c6261636b207375636365736020820152631cd99d5b60e21b6040820152613e74565b81611d9391613647565b611163578338611b02565b503461018f578060031936011261018f57611db7613df0565b80546001600160a01b03198116825581906001600160a01b03167f8be0079c531659141344cd1fd0a4f28419497f9722a3daafe3b4186f6b6457e08280a380f35b503461018f57604036600319011261018f57600435600881101561023f57611e1e613df0565b611e2781613569565b81526007602052602435604082205580f35b5061010036600319011261018f576040611e878151611e588382613647565b602081527f457865637574696e6720446174612052657472696576616c20526571756573746020820152613e74565b604435611e95813414613ab0565b65943f65193000606435918282019182811161092057611eb86084358094613999565b60043593600385101591826121af57611ed086613781565b600286148015612193575b90611eec91612176573410156139a6565b606095611f3c8851611efe8982613647565b602781527f446174612052657472696576616c205265717565737420726571756972656d656020820152661b9d1cc81b595d60ca1b8a820152613e74565b6001546001600160801b0319611f55608083901c613efa565b60801b169060018060801b03161793846001556008549081018091116109205782611f7f91613999565b94885196611f8c886135f5565b895194611f98866135c3565b61091c578452611fa661350c565b60208501528884015286830152608082015260a4356001600160401b0319811681036121725760a082015260c4356001600160401b0319811681036121725760c082015260e4356001600160801b038116810361217257602097938796938360089360e06107a89996015284528984019034825288850192835260801c865260048a528786209351805161203981613781565b61204281613781565b85548c830151610100600160881b0360089190911b1660ff929092166001600160881b031990911617178555888101516001860155858101516002860155608081015160038601556120a860a082015163ffffffff81891c918c1c169060048801613a86565b6120c660c082015163ffffffff81891c918c1c169060058801613a86565b60e001516006850180546001600160801b0319166001600160801b03929092169190911790555160078401555191015560018054865160809190911c808252888201929092529095869350600080516020613f6683398151915291a161212e84519182613647565b602e81527f446174612052657472696576616c205265717565737420656d69747465642c20868201526d199bdc881c995c5d595cdd08095960921b84820152613e19565b8780fd5b61218e6121866008548093613999565b911515613b14565b6103bf565b509150611eec88926121a487613781565b905060018614611edb565b8880fd5b506121bd3661374d565b60406121fd81516121ce8382613647565b601c81527f457865637574696e6720446174612053746f72652052657175657374000000006020820152613e74565b60095492831561264657602083013593612218853414613ab0565b65943f65193000948186019081871161092057612239858701358093613999565b9561224960608201358098613999565b61225b6103bf60808401358093613999565b6060946122a7885161226d8882613647565b602381527f446174612053746f7265205265717565737420726571756972656d656e7473206020820152621b595d60ea1b8a820152613e74565b600254996001600160801b036122be818d16613efa565b166001600160801b03199b909b168b17600255810190811061092057816122e491613999565b978751946122f1866135f5565b6101008436031261217257885194612308866135c3565b84356001600160401b0381116126425785018881360312612642578a519061232f826135f5565b8035600381101561263e5782526020810135600381101561263e5760208301528b8101356001600160401b03811161263e57916123796123b99896949260e0989694369101613a04565b8d820152885260208801528a87015287860152608085015261239d60a08201613a5a565b60a08501526123ae60c08201613a5a565b60c085015201613a5a565b60e082015281526020810195348752848201958652835260056020528383209051948551966123f288516123ec81613781565b84613afc565b602088015161240081613781565b61240981613781565b61ff0084549160081b169061ff0019161783558560018401980151968751986001600160401b038a1161262a576020996124438254613589565b601f81116125fc575b508a99601f8211600114612589578897969593600a959361248e84612509958e9f60e0966107a89f926107ae5750508160011b916000199060031b1c19161790565b90555b8c81015160028801558a8101516003880155878101516004880155608081015160058801556124d48b63ffffffff60a0840151808c1c921c169060068a01613a86565b6124f28b63ffffffff60c0840151808c1c921c169060078a01613a86565b0151808a1c63ffffffff1690871c60088701613a86565b51600984015551910155600080516020613f6683398151915260018060801b036002541695869381519085825250600289820152a161254a84519182613647565b602981527f446174612053746f7265205265717565737420656d697474656420666f7220728682015268195c5d595cdd08095960ba1b84820152613e19565b8289528a892090601f1983168a5b8181106125e557509360018460e0948e9f6107a89e9d9c9b999561250998600a9c9a106125cc575b505050811b019055612491565b015160001960f88460031b161c191690553880806125bf565b828e015184559c8e019c6001909301928e01612597565b61262490838a528c8a20601f840160051c8101918e851061085757601f0160051c0190613a6f565b3861244c565b634e487b7160e01b87526041600452602487fd5b8b80fd5b8980fd5b815162461bcd60e51b815260206004820152602560248201527f446174612053746f7265206f7065726174696f6e206973206e6f7420737570706044820152641bdc9d195960da1b6064820152608490fd5b503461018f57602036600319011261018f576101a0906040906001600160801b036126c16134f1565b168152600360205220604051906126d782613610565b60ff8154166126e581613569565b82526126f36001820161378b565b91602081019283526127076003830161378b565b6040828101918252600584015460608401908152600685015460808501908152600786015460a08601908152600887015460c087019081526009880154600160201b600160c01b03811663ffffffff9091161790941b60e087019081529296949391929190600a860154600160201b600160c01b03811663ffffffff9091161760401b610100880190815293600b870154600160201b600160c01b03811663ffffffff9091161760401b61012089019081529561280b906127f8600d600c8b01549a01549a6040519e8f9e8f9260608452516127e281613569565b60608401525191610140608082015201906137f7565b90518c8203605f190160a08e01526137f7565b985160c08b01525160e08a01525161010089015251610120880152516001600160401b031990811661014088015290518116610160870152905116610180850152602084015260408301520390f35b503461018f57602036600319011261018f57612874613df0565b60043560095580f35b503461018f578060031936011261018f57612896613df0565b8080808060018060a01b0381541647908282156128c3575bf1156128b75780f35b604051903d90823e3d90fd5b506108fc6128ae565b506128d63661374d565b60606129226040516128e88382613647565b602281527f457865637574696e6720436f6e666964656e7469616c436f696e2052657175656020820152611cdd60f21b6040820152613e74565b600a54928315612d155765943f6519300093808501808611610920576129506103bf60808701358093613999565b6129a16040516129608682613647565b602981527f436f6e666964656e7469616c436f696e205265717565737420726571756972656020820152681b595b9d1cc81b595d60ba1b6040820152613e74565b6002546001600160801b03196129ba608083901c613efa565b60801b169060018060801b03161795866002558201809211610920576129e560a08601358093613999565b94604051926129f3846135f5565b61010082360312610efc5760405192612a0b846135c3565b82358015158103612d11578452612a2460208401613522565b6020850152612a3560408401613522565b6040850152868301356001600160401b038111612d1157612a599036908501613a04565b84880152608084015260a083015260c08101356001600160401b031981168103610efc5760c0830152612a8e9060e001613a5a565b60e08201528152346020808301918252604080840196875260809790971c845260068152958320915180518354978201516001600160881b031990981660ff911515919091161760089790971b610100600160881b031696909617825560408601516001830180546001600160801b0319166001600160801b039290921691909117905583860151805190969060028401906001600160401b038111612cfd57602098612b3b8354613589565b601f8111612ccf575b508990601f8311600114612c5e579360089593612b8384612bd29560e095612c569d9e998d926107ae5750508160011b916000199060031b1c19161790565b90555b6080810151600388015560a08101516004880155612bb960c082015163ffffffff818d1c9160401c169060058a01613a86565b015163ffffffff818a1c9160401c169060068701613a86565b5160078401555191015560025460801c928391600080516020613f6683398151915260408051858152600389820152a150612c106040519182613647565b602f81527f436f6e666964656e7469616c436f696e205265717565737420656d6974746564858201526e08199bdc881c995c5d595cdd080959608a1b6040820152613e19565b604051908152f35b8388528188209190601f198416895b818110612cb857508460e094612c569c9d989460089a9894612bd29860019510612c9f575b505050811b019055612b86565b015160001960f88460031b161c19169055388080612c92565b92938d600181928786015181550195019301612c6d565b612cf7908489528b8920601f850160051c8101918d861061085757601f0160051c0190613a6f565b38612b44565b634e487b7160e01b86526041600452602486fd5b8680fd5b60405162461bcd60e51b815260206004820152602b60248201527f436f6e666964656e7469616c436f696e206f7065726174696f6e206973206e6f60448201526a1d081cdd5c1c1bdc9d195960aa1b6064820152608490fd5b503461018f578060031936011261018f576002546040516001600160801b039091168152602090f35b503461018f57602036600319011261018f576040906001600160801b03612dbc6134f1565b168152600660205220604051612dd1816135c3565b815460ff81161515825260081c6001600160801b0390811660208301908152600184015490911660408301908152909290612e0e60028301613668565b60608401908152600383015460808501908152600484015460a086019081526005850154600160201b600160c01b03811663ffffffff9091161760401b60c0870190815291949291906006840154600160201b600160c01b03811663ffffffff9091161760401b60e0880190815292612ed09060086007870154960154966040519a8b9a60608c5251151560608c015260018060801b0390511660808b015260018060801b0390511660a08a01525161010060c08a015261016089019061370c565b955160e088015251610100870152516001600160401b0319908116610120870152905116610140850152602084015260408301520390f35b503461018f57602036600319011261018f57600435600881101561023f5760209181612f35604093613569565b8152600783522054604051908152f35b503461018f57612f5436613536565b612f5c613df0565b5a91602082016001600160801b03612f738261385b565b1693612fd2606095604051612f888882613647565b603281527f43616c6c696e67207468652063616c6c6261636b20666f7220646174612072656020820152711d1c9a595d985b081c995c5d595cdd08095960721b6040820152613e19565b6001600160801b03612fe38361385b565b1683526004602052633b9aca006002604085200154049461302e604096875161300c8982613647565b601081526f18d85b1b189858dad7d9d85cce88095960821b6020820152613e19565b6001600160801b0361303f8461385b565b168452600460208181528786209091015463ffffffff811696911c6001600160a01b03166001600160801b036130748661385b565b1686526004602052633b9aca00600289882001540491813b15612d115788519760e01b88526020600489015280356008811015612172576130b481613569565b60248901526001600160801b036130ca87613522565b16604489015288810135605e1982360301811215612172570183606489015280356003811015612172576130fd81613781565b60848901526020810135600381101561217257878993846131466131368498968f876131298699613781565b60a486015281019061386f565b8a60c485015260e48401916138a0565b0393f194856133d3575b5061319e9293941560001461338b5750610ccd855161316f8782613647565b601f81527f4572726f7220696e20446174612052657472696576652043616c6c6261636b006020820152613e74565b926161a884101561335a578293506132086131e26131bd853a906138ce565b6001600160801b036131ce8661385b565b1686526004602052600784872001546138c1565b6001600160801b036131f38561385b565b168552600460205260088386200154906138c1565b9182613261575b600892506001600160801b03906132259061385b565b16835260046020528220828155826001820155826002820155826003820155826004820155826005820155826006820155826007820155015580f35b61327f6001600160801b036132758361385b565b1684610e1d6138e1565b6001600160801b036132908261385b565b16845260046020908152828520600501549081901c6001600160a01b03169363ffffffff909116906001600160801b036132c98461385b565b1686526004602052633b9aca006003858820015404946132e88461385b565b90803b1561217257879384936024928851998a95869460e01b855260018060801b03166004850152f19384613340575b50506008921560001461333557613330610ecc613962565b61320f565b613330610ecc613927565b8161334a91613647565b613355578338613318565b505050fd5b6161a7198401938411613377576132086131e26131bd8596610cea565b634e487b7160e01b83526011600452602483fd5b610f709061339b87519182613647565b602181527f446174612052657472696576652043616c6c6261636b207375636365737366756020820152601b60fa1b87820152613e74565b936133e28161319e9596613647565b9392613150565b503461018f578060031936011261018f57613402613df0565b604051476001600160801b03168152602090f35b503461018f578060031936011261018f57602060025460801c604051908152f35b503461018f578060031936011261018f57602060015460801c604051908152f35b503461018f57602036600319011261018f576134726134f1565b61347a613df0565b6001600160801b03164781116134ad57815482918291829182916001600160a01b03168282156128c357f1156128b75780f35b606460405162461bcd60e51b815260206004820152602060248201527f496e73756666696369656e742062616c616e636520746f2077697468647261776044820152fd5b600435906001600160801b038216820361350757565b600080fd5b602435906001600160801b038216820361350757565b35906001600160801b038216820361350757565b602060031982011261350757600435906001600160401b0382116135075760609082900360031901126135075760040190565b6008111561357357565b634e487b7160e01b600052602160045260246000fd5b90600182811c921680156135b9575b60208310146135a357565b634e487b7160e01b600052602260045260246000fd5b91607f1691613598565b61010081019081106001600160401b038211176135df57604052565b634e487b7160e01b600052604160045260246000fd5b606081019081106001600160401b038211176135df57604052565b61014081019081106001600160401b038211176135df57604052565b608081019081106001600160401b038211176135df57604052565b90601f801991011681019081106001600160401b038211176135df57604052565b906040519182600082549261367c84613589565b80845293600181169081156136ea57506001146136a3575b506136a192500383613647565b565b90506000929192526020600020906000915b8183106136ce5750509060206136a19282010138613694565b60209193508060019154838589010152019101909184926136b5565b9050602092506136a194915060ff191682840152151560051b82010138613694565b919082519283825260005b848110613738575050826000602080949584010152601f8019910116010190565b80602080928401015182828601015201613717565b602060031982011261350757600435906001600160401b038211613507576101009082900360031901126135075760040190565b6003111561357357565b906040516137988161362c565b8092805460ff81166137a981613781565b835260ff8160081c169060028210156135735760609260ff6001926137e594602088015260101c166137da81613781565b604086015201613668565b910152565b9060028210156135735752565b906080606061384293805161380b81613781565b845261381f602082015160208601906137ea565b604081015161382d81613781565b6040850152015191816060820152019061370c565b90565b6024356001600160801b03811681036135075790565b356001600160801b03811681036135075790565b9035601e19823603018112156135075701602081359101916001600160401b03821161350757813603831361350757565b908060209392818452848401376000828201840152601f01601f1916010190565b9190820391821161092057565b8181029291811591840414171561092057565b604051906138f0606083613647565b6022825261095960f21b6040837f5472616e7366657272696e672025642020666f7220726571756573742069642060208201520152565b60405190613936604083613647565b601b82527f5061796d656e742043616c6c6261636b207375636365737366756c00000000006020830152565b60405190613971604083613647565b60198252784572726f7220696e205061796d656e742043616c6c6261636b60381b6020830152565b9190820180921161092057565b156139ad57565b60405162461bcd60e51b815260206004820152602960248201527f496e73756666696369656e742066756e647320746f206578656375746520746860448201526819481c995c5d595cdd60ba1b6064820152608490fd5b81601f82011215613507578035906001600160401b0382116135df5760405192613a38601f8401601f191660200185613647565b8284526020838301011161350757816000926020809301838601378301015290565b35906001600160401b03198216820361350757565b818110613a7a575050565b60008155600101613a6f565b919063ffffffff9060018060c01b039060201b169116176001600160401b0360c01b825416179055565b15613ab757565b60405162461bcd60e51b815260206004820152601e60248201527f46756e64206d69736d61746368207769746820746865207265717565737400006044820152606490fd5b90613b0681613781565b60ff80198354169116179055565b15613b1b57565b60405162461bcd60e51b815260206004820152601760248201527613dc195c985d1a5bdb881b9bdd081cdd5c1c1bdc9d1959604a1b6044820152606490fd5b60405190613b69604083613647565b601b82527f616363657074616e63655f63616c6c6261636b5f6761733a20256400000000006020830152565b613b9f8154613589565b9081613ba9575050565b81601f60009311600114613bbb575055565b81835260208320613bd791601f0160051c810190600101613a6f565b8082528160208120915555565b60405190613bf3604083613647565b601b82527f7375626d697373696f6e5f63616c6c6261636b5f6761733a20256400000000006020830152565b906060820191600435600881101561350757613c3a81613569565b81526024356001600160801b038116908190036135075760208201526044356001600160801b03811691908290036135075760400152565b60405190613c81606083613647565b60218252601960fa1b6040837f5472616e7366657272696e6720256420666f722072657175657374206964202560208201520152565b90602082528035600881101561350757613cd081613569565b602083015260018060801b03613ce860208301613522565b1660408301526040810135607e19823603018112156135075701906060808201528135600381101561350757613d1d81613781565b60808201526020820135600281101561350757613d3e9060a08301906137ea565b604082013591600383101561350757613d706101009184613d6161384296613781565b60c0850152606081019061386f565b919092608060e082015201916138a0565b91906080838203126135075760405190613d9a8261362c565b81938035600381101561350757835260208101356002811015613507576020840152604081013560038110156135075760408401526060810135916001600160401b038311613507576060926137e59201613a04565b6000546001600160a01b03163303613e0457565b63118cdaa760e01b6000523360045260246000fd5b613e49613e5d600093928493604051938492632d839cb360e21b602085015260406024850152606484019061370c565b90604483015203601f198101835282613647565b6020815191016a636f6e736f6c652e6c6f675afa50565b6000613ea2613e5d829360405192839163104c13eb60e21b602084015260206024840152604483019061370c565b03601f198101835282613647565b613e5d613ee19160009493859460405194859363ca47c4eb60e01b602086015260606024860152608485019061370c565b916044840152606483015203601f198101835282613647565b6001600160801b0390811690811015613f2a576001016001600160801b038111610920576001600160801b031690565b60405162461bcd60e51b815260206004820152601360248201527252657175657374204944206f766572666c6f7760681b6044820152606490fdfe22b2f6dcb9b040cf19b4246042eb175027500664470d691335799a43796990e8a2646970667358221220c645e9c298ac675097dc6d40f3b874cc23695e443ac8bd4c2e551d95cd330ba964736f6c634300081c0033",
  "linkReferences": {},
  "deployedLinkReferences": {}
}